{"contracts/BillingRegistry.sol":{"BillingRegistry":{"abi":[{"inputs":[],"stateMutability":"nonpayable","type":"constructor"},{"inputs":[{"internalType":"address","name":"owner","type":"address"}],"name":"OwnableInvalidOwner","type":"error"},{"inputs":[{"internalType":"address","name":"account","type":"address"}],"name":"OwnableUnauthorizedAccount","type":"error"},{"inputs":[],"name":"ReentrancyGuardReentrantCall","type":"error"},{"anonymous":false,"inputs":[{"indexed":true,"internalType":"address","name":"previousOwner","type":"address"},{"indexed":true,"internalType":"address","name":"newOwner","type":"address"}],"name":"OwnershipTransferred","type":"event"},{"anonymous":false,"inputs":[{"indexed":false,"internalType":"address","name":"newContract","type":"address"}],"name":"PaymentStreamContractUpdated","type":"event"},{"anonymous":false,"inputs":[{"indexed":true,"internalType":"bytes32","name":"serviceId","type":"bytes32"},{"indexed":true,"internalType":"address","name":"consumer","type":"address"},{"indexed":false,"internalType":"uint256","name":"amount","type":"uint256"},{"indexed":false,"internalType":"bool","name":"isStream","type":"bool"}],"name":"ServiceConsumed","type":"event"},{"anonymous":false,"inputs":[{"indexed":true,"internalType":"bytes32","name":"serviceId","type":"bytes32"},{"indexed":true,"internalType":"address","name":"consumer","type":"address"},{"indexed":false,"internalType":"uint8","name":"rating","type":"uint8"}],"name":"ServiceRated","type":"event"},{"anonymous":false,"inputs":[{"indexed":true,"internalType":"bytes32","name":"serviceId","type":"bytes32"},{"indexed":true,"internalType":"address","name":"provider","type":"address"},{"indexed":false,"internalType":"string","name":"name","type":"string"},{"indexed":false,"internalType":"enum BillingRegistry.BillingType","name":"billingType","type":"uint8"},{"indexed":false,"internalType":"uint256","name":"rate","type":"uint256"}],"name":"ServiceRegistered","type":"event"},{"anonymous":false,"inputs":[{"indexed":true,"internalType":"bytes32","name":"serviceId","type":"bytes32"},{"indexed":false,"internalType":"uint256","name":"newRate","type":"uint256"},{"indexed":false,"internalType":"bool","name":"isActive","type":"bool"}],"name":"ServiceUpdated","type":"event"},{"inputs":[{"internalType":"uint256","name":"","type":"uint256"}],"name":"activeServiceIds","outputs":[{"internalType":"bytes32","name":"","type":"bytes32"}],"stateMutability":"view","type":"function"},{"inputs":[{"internalType":"bytes32","name":"serviceId","type":"bytes32"},{"internalType":"uint256","name":"durationOrQuantity","type":"uint256"}],"name":"calculateCost","outputs":[{"internalType":"uint256","name":"","type":"uint256"}],"stateMutability":"view","type":"function"},{"inputs":[{"internalType":"address","name":"","type":"address"},{"internalType":"uint256","name":"","type":"uint256"}],"name":"consumerHistory","outputs":[{"internalType":"bytes32","name":"serviceId","type":"bytes32"},{"internalType":"address","name":"consumer","type":"address"},{"internalType":"uint256","name":"startTime","type":"uint256"},{"internalType":"uint256","name":"endTime","type":"uint256"},{"internalType":"uint256","name":"amountPaid","type":"uint256"},{"internalType":"bool","name":"isStream","type":"bool"}],"stateMutability":"view","type":"function"},{"inputs":[{"internalType":"uint256","name":"offset","type":"uint256"},{"internalType":"uint256","name":"limit","type":"uint256"}],"name":"getActiveServices","outputs":[{"internalType":"bytes32[]","name":"","type":"bytes32[]"}],"stateMutability":"view","type":"function"},{"inputs":[{"internalType":"bytes32","name":"serviceId","type":"bytes32"}],"name":"getAverageRating","outputs":[{"internalType":"uint256","name":"","type":"uint256"}],"stateMutability":"view","type":"function"},{"inputs":[{"internalType":"address","name":"consumer","type":"address"}],"name":"getConsumerHistory","outputs":[{"components":[{"internalType":"bytes32","name":"serviceId","type":"bytes32"},{"internalType":"address","name":"consumer","type":"address"},{"internalType":"uint256","name":"startTime","type":"uint256"},{"internalType":"uint256","name":"endTime","type":"uint256"},{"internalType":"uint256","name":"amountPaid","type":"uint256"},{"internalType":"bool","name":"isStream","type":"bool"}],"internalType":"struct BillingRegistry.UsageRecord[]","name":"","type":"tuple[]"}],"stateMutability":"view","type":"function"},{"inputs":[],"name":"getMarketplaceStats","outputs":[{"internalType":"uint256","name":"totalServices","type":"uint256"},{"internalType":"uint256","name":"totalVolume","type":"uint256"},{"internalType":"uint256","name":"totalProviders","type":"uint256"}],"stateMutability":"view","type":"function"},{"inputs":[{"internalType":"address","name":"provider","type":"address"}],"name":"getProviderServices","outputs":[{"internalType":"bytes32[]","name":"","type":"bytes32[]"}],"stateMutability":"view","type":"function"},{"inputs":[{"internalType":"bytes32","name":"serviceId","type":"bytes32"}],"name":"getService","outputs":[{"components":[{"internalType":"bytes32","name":"serviceId","type":"bytes32"},{"internalType":"address","name":"provider","type":"address"},{"internalType":"string","name":"name","type":"string"},{"internalType":"string","name":"description","type":"string"},{"internalType":"string","name":"endpoint","type":"string"},{"internalType":"enum BillingRegistry.BillingType","name":"billingType","type":"uint8"},{"internalType":"uint256","name":"rate","type":"uint256"},{"internalType":"uint256","name":"minDuration","type":"uint256"},{"internalType":"uint256","name":"maxDuration","type":"uint256"},{"internalType":"bool","name":"isActive","type":"bool"},{"internalType":"uint256","name":"totalEarned","type":"uint256"},{"internalType":"uint256","name":"totalRequests","type":"uint256"},{"internalType":"uint256","name":"ratingSum","type":"uint256"},{"internalType":"uint256","name":"ratingCount","type":"uint256"},{"internalType":"string[]","name":"tags","type":"string[]"}],"internalType":"struct BillingRegistry.Service","name":"","type":"tuple"}],"stateMutability":"view","type":"function"},{"inputs":[{"internalType":"string","name":"tag","type":"string"}],"name":"getServicesByTag","outputs":[{"internalType":"bytes32[]","name":"","type":"bytes32[]"}],"stateMutability":"view","type":"function"},{"inputs":[],"name":"minServiceRate","outputs":[{"internalType":"uint256","name":"","type":"uint256"}],"stateMutability":"view","type":"function"},{"inputs":[],"name":"owner","outputs":[{"internalType":"address","name":"","type":"address"}],"stateMutability":"view","type":"function"},{"inputs":[],"name":"paymentStreamContract","outputs":[{"internalType":"address","name":"","type":"address"}],"stateMutability":"view","type":"function"},{"inputs":[],"name":"platformFeeBps","outputs":[{"internalType":"uint256","name":"","type":"uint256"}],"stateMutability":"view","type":"function"},{"inputs":[{"internalType":"address","name":"","type":"address"}],"name":"providerEarnings","outputs":[{"internalType":"uint256","name":"","type":"uint256"}],"stateMutability":"view","type":"function"},{"inputs":[{"internalType":"address","name":"","type":"address"},{"internalType":"uint256","name":"","type":"uint256"}],"name":"providerServices","outputs":[{"internalType":"bytes32","name":"","type":"bytes32"}],"stateMutability":"view","type":"function"},{"inputs":[{"internalType":"bytes32","name":"serviceId","type":"bytes32"},{"internalType":"uint8","name":"rating","type":"uint8"}],"name":"rateService","outputs":[],"stateMutability":"nonpayable","type":"function"},{"inputs":[{"internalType":"bytes32","name":"serviceId","type":"bytes32"},{"internalType":"address","name":"consumer","type":"address"},{"internalType":"uint256","name":"amount","type":"uint256"},{"internalType":"bool","name":"isStream","type":"bool"},{"internalType":"uint256","name":"startTime","type":"uint256"},{"internalType":"uint256","name":"endTime","type":"uint256"}],"name":"recordConsumption","outputs":[],"stateMutability":"nonpayable","type":"function"},{"inputs":[{"internalType":"string","name":"name","type":"string"},{"internalType":"string","name":"description","type":"string"},{"internalType":"string","name":"endpoint","type":"string"},{"internalType":"enum BillingRegistry.BillingType","name":"billingType","type":"uint8"},{"internalType":"uint256","name":"rate","type":"uint256"},{"internalType":"uint256","name":"minDuration","type":"uint256"},{"internalType":"uint256","name":"maxDuration","type":"uint256"},{"internalType":"string[]","name":"tags","type":"string[]"}],"name":"registerService","outputs":[{"internalType":"bytes32","name":"serviceId","type":"bytes32"}],"stateMutability":"nonpayable","type":"function"},{"inputs":[],"name":"renounceOwnership","outputs":[],"stateMutability":"nonpayable","type":"function"},{"inputs":[{"internalType":"string","name":"keyword","type":"string"}],"name":"searchServices","outputs":[{"internalType":"bytes32[]","name":"","type":"bytes32[]"}],"stateMutability":"view","type":"function"},{"inputs":[{"internalType":"bytes32","name":"","type":"bytes32"}],"name":"services","outputs":[{"internalType":"bytes32","name":"serviceId","type":"bytes32"},{"internalType":"address","name":"provider","type":"address"},{"internalType":"string","name":"name","type":"string"},{"internalType":"string","name":"description","type":"string"},{"internalType":"string","name":"endpoint","type":"string"},{"internalType":"enum BillingRegistry.BillingType","name":"billingType","type":"uint8"},{"internalType":"uint256","name":"rate","type":"uint256"},{"internalType":"uint256","name":"minDuration","type":"uint256"},{"internalType":"uint256","name":"maxDuration","type":"uint256"},{"internalType":"bool","name":"isActive","type":"bool"},{"internalType":"uint256","name":"totalEarned","type":"uint256"},{"internalType":"uint256","name":"totalRequests","type":"uint256"},{"internalType":"uint256","name":"ratingSum","type":"uint256"},{"internalType":"uint256","name":"ratingCount","type":"uint256"}],"stateMutability":"view","type":"function"},{"inputs":[{"internalType":"uint256","name":"newMin","type":"uint256"}],"name":"setMinServiceRate","outputs":[],"stateMutability":"nonpayable","type":"function"},{"inputs":[{"internalType":"address","name":"_contract","type":"address"}],"name":"setPaymentStreamContract","outputs":[],"stateMutability":"nonpayable","type":"function"},{"inputs":[{"internalType":"string","name":"","type":"string"}],"name":"standardServices","outputs":[{"internalType":"bytes32","name":"","type":"bytes32"}],"stateMutability":"view","type":"function"},{"inputs":[{"internalType":"string","name":"","type":"string"},{"internalType":"uint256","name":"","type":"uint256"}],"name":"tagIndex","outputs":[{"internalType":"bytes32","name":"","type":"bytes32"}],"stateMutability":"view","type":"function"},{"inputs":[],"name":"totalServices","outputs":[{"internalType":"uint256","name":"","type":"uint256"}],"stateMutability":"view","type":"function"},{"inputs":[{"internalType":"address","name":"newOwner","type":"address"}],"name":"transferOwnership","outputs":[],"stateMutability":"nonpayable","type":"function"},{"inputs":[{"internalType":"bytes32","name":"serviceId","type":"bytes32"},{"internalType":"uint256","name":"newRate","type":"uint256"},{"internalType":"bool","name":"isActive","type":"bool"},{"internalType":"string","name":"newDescription","type":"string"},{"internalType":"string","name":"newEndpoint","type":"string"}],"name":"updateService","outputs":[],"stateMutability":"nonpayable","type":"function"}],"evm":{"bytecode":{"linkReferences":{},"object":"6080604052620f42406009556019600a553480156200001d57600080fd5b5033806200004557604051631e4fbdf760e01b81526000600482015260240160405180910390fd5b62000050816200007b565b5060017f9b779b17422d0df92223018b32b4d1fa46e071723d6817e2486d003becc55f0055620000cb565b600080546001600160a01b038381166001600160a01b0319831681178455604051919092169283917f8be0079c531659141344cd1fd0a4f28419497f9722a3daafe3b4186f6b6457e09190a35050565b612c5880620000db6000396000f3fe608060405234801561001057600080fd5b50600436106101cf5760003560e01c8063715018a611610104578063bf009230116100a2578063ee3e1a0e11610071578063ee3e1a0e14610442578063f0609f3514610455578063f2fde38b14610468578063fa2114c51461047b57600080fd5b8063bf009230146103b2578063bf00fae3146103fc578063ce8cce7f1461040f578063da47d8561461042257600080fd5b80639363104f116100de5780639363104f146103595780639747ac5f1461036c5780639fa3a5701461037f578063a8dd46d01461039f57600080fd5b8063715018a614610309578063812d966a146103115780638da5cb5b1461033457600080fd5b80632f0adf9111610171578063530310401161014b57806353031040146102ba5780635e56198e146102cd5780636301ac8f146102e05780636e9b0d6d146102e957600080fd5b80632f0adf911461028b5780634a9df43d1461029e57806351408de3146102a757600080fd5b8063159a6594116101ad578063159a65941461023a5780631f0b70ed1461025a57806322dcd13e1461026f5780632733aec91461027857600080fd5b806303731b9e146101d45780630a790eb7146101fa5780630cd32e5314610227575b600080fd5b6101e76101e2366004611fd6565b6104a6565b6040519081526020015b60405180910390f35b61020d610208366004612000565b6104d7565b6040516101f19e9d9c9b9a99989796959493929190612097565b6101e76102353660046121e3565b6106ea565b6101e76102483660046122ea565b60046020526000908152604090205481565b61026d610268366004612000565b610b72565b005b6101e7600a5481565b6101e76102863660046123ba565b610b7f565b61026d61029936600461240e565b610baa565b6101e760095481565b6101e76102b53660046124a1565b610cdd565b6101e76102c8366004612000565b610d54565b61026d6102db3660046122ea565b610d91565b6101e760075481565b6102fc6102f73660046124c3565b610e35565b6040516101f19190612504565b61026d610ea8565b610319610ebc565b604080519384526020840192909252908201526060016101f1565b6000546001600160a01b03165b6040516001600160a01b0390911681526020016101f1565b61026d610367366004612548565b611072565b6102fc61037a3660046122ea565b611299565b61039261038d3660046122ea565b611305565b6040516101f191906125a0565b61026d6103ad366004612623565b6113be565b6103c56103c0366004611fd6565b611598565b604080519687526001600160a01b0390951660208701529385019290925260608401526080830152151560a082015260c0016101f1565b6102fc61040a3660046124a1565b6115f9565b6102fc61041d3660046124c3565b6116d3565b610435610430366004612000565b61193d565b6040516101f191906126a1565b6101e7610450366004612000565b611ca8565b600854610341906001600160a01b031681565b61026d6104763660046122ea565b611cc9565b6101e76104893660046127ca565b8051602081830181018051600b8252928201919093012091525481565b600260205281600052604060002081815481106104c257600080fd5b90600052602060002001600091509150505481565b60016020819052600091825260409091208054918101546002820180546001600160a01b03909216929161050a906127fe565b80601f0160208091040260200160405190810160405280929190818152602001828054610536906127fe565b80156105835780601f1061055857610100808354040283529160200191610583565b820191906000526020600020905b81548152906001019060200180831161056657829003601f168201915b505050505090806003018054610598906127fe565b80601f01602080910402602001604051908101604052809291908181526020018280546105c4906127fe565b80156106115780601f106105e657610100808354040283529160200191610611565b820191906000526020600020905b8154815290600101906020018083116105f457829003601f168201915b505050505090806004018054610626906127fe565b80601f0160208091040260200160405190810160405280929190818152602001828054610652906127fe565b801561069f5780601f106106745761010080835404028352916020019161069f565b820191906000526020600020905b81548152906001019060200180831161068257829003601f168201915b5050505060058301546006840154600785015460088601546009870154600a880154600b890154600c8a0154600d909a0154989960ff9788169996985094969395939092169390928e565b60008b61072e5760405162461bcd60e51b815260206004820152600d60248201526c13985b59481c995c5d5a5c9959609a1b60448201526064015b60405180910390fd5b60095486101561076f5760405162461bcd60e51b815260206004820152600c60248201526b5261746520746f6f206c6f7760a01b6044820152606401610725565b848410156107b35760405162461bcd60e51b8152602060048201526011602482015270496e76616c6964206475726174696f6e7360781b6044820152606401610725565b338d8d426007546040516020016107ce959493929190612838565b604051602081830303815290604052805190602001209050604051806101e00160405280828152602001336001600160a01b031681526020018e8e8080601f016020809104026020016040519081016040528093929190818152602001838380828437600092019190915250505090825250604080516020601f8f018190048102820181019092528d815291810191908e908e9081908401838280828437600092019190915250505090825250604080516020601f8d018190048102820181019092528b815291810191908c908c90819084018382808284376000920191909152505050908252506020018860048111156108cb576108cb61205f565b815260200187815260200186815260200185815260200160011515815260200160008152602001600081526020016000815260200160008152602001848490610914919061286d565b9052600082815260016020818152604092839020845181559084015191810180546001600160a01b0319166001600160a01b0390931692909217909155908201516002820190610964908261293f565b5060608201516003820190610979908261293f565b506080820151600482019061098e908261293f565b5060a082015160058201805460ff191660018360048111156109b2576109b261205f565b021790555060c0820151600682015560e08201516007820155610100820151600882015561012082015160098201805460ff1916911515919091179055610140820151600a820155610160820151600b820155610180820151600c8201556101a0820151600d8201556101c08201518051610a3791600e840191602090910190611e68565b5050336000908152600260209081526040822080546001818101835591845291832090910184905560068054918201815582527ff652222313e28459528d920b65115c16c04f3efc82aaedc97be59f3f377c0d3f0183905590505b82811015610b04576005848483818110610aae57610aae6129fe565b9050602002810190610ac09190612a14565b604051610ace929190612a5a565b90815260405160209181900382019020805460018101825560009182529190200182905580610afc81612a80565b915050610a92565b5060078054906000610b1583612a80565b9190505550336001600160a01b0316817f8b7fa420224eb662d5fda1620deab4b0382012c642a8510e687959052a29ef8d8f8f8b8b604051610b5a9493929190612a99565b60405180910390a39c9b505050505050505050505050565b610b7a611d07565b600955565b815160208184018101805160058252928201918501919091209190528054829081106104c257600080fd5b6000878152600160208190526040909120908101546001600160a01b03163314610c055760405162461bcd60e51b815260206004820152600c60248201526b2737ba10383937bb34b232b960a11b6044820152606401610725565b8615610c5457600954871015610c4c5760405162461bcd60e51b815260206004820152600c60248201526b5261746520746f6f206c6f7760a01b6044820152606401610725565b600681018790555b60098101805460ff19168715151790558315610c7b5760038101610c79858783612ae0565b505b8115610c925760048101610c90838583612ae0565b505b600681015460408051918252871515602083015289917fee82bddf4ee320ad7bc2d70c4cfeeed46bad1eb45488a9a70c292bb9a24f1ebd910160405180910390a25050505050505050565b60008281526001602081905260408220908101546001600160a01b0316610d3a5760405162461bcd60e51b815260206004820152601160248201527014d95c9d9a58d9481b9bdd08199bdd5b99607a1b6044820152606401610725565b828160060154610d4a9190612ba0565b9150505b92915050565b6000818152600160205260408120600d8101548203610d765750600092915050565b80600d015481600c0154610d8a9190612bb7565b9392505050565b610d99611d07565b6001600160a01b038116610de15760405162461bcd60e51b815260206004820152600f60248201526e496e76616c6964206164647265737360881b6044820152606401610725565b600880546001600160a01b0319166001600160a01b0383169081179091556040519081527fe2605215ebef56288c86de4004ac7c45e36fd52846ce4671dfb62ddbd70f59e69060200160405180910390a150565b606060058383604051610e49929190612a5a565b9081526040805191829003602090810183208054808302850183019093528284529190830182828015610e9b57602002820191906000526020600020905b815481526020019060010190808311610e87575b5050505050905092915050565b610eb0611d07565b610eba6000611d34565b565b600654600080805b600654811015610f21576001600060068381548110610ee557610ee56129fe565b90600052602060002001548152602001908152602001600020600a015483610f0d9190612bd9565b925080610f1981612a80565b915050610ec4565b506006546000906001600160401b03811115610f3f57610f3f612305565b604051908082528060200260200182016040528015610f68578160200160208202803683370190505b5090506000805b6006548110156110675760006001600060068481548110610f9257610f926129fe565b600091825260208083209091015483528201929092526040018120600101546001600160a01b03169150805b8481101561101357826001600160a01b0316868281518110610fe257610fe26129fe565b60200260200101516001600160a01b0316036110015760019150611013565b8061100b81612a80565b915050610fbe565b5080611052578185858151811061102c5761102c6129fe565b6001600160a01b03909216602092830291909101909101528361104e81612a80565b9450505b5050808061105f90612a80565b915050610f6f565b508092505050909192565b6008546001600160a01b031633148061109557506000546001600160a01b031633145b6110d25760405162461bcd60e51b815260206004820152600e60248201526d139bdd08185d5d1a1bdc9a5e995960921b6044820152606401610725565b6000868152600160205260408120600a81018054919287926110f5908490612bd9565b9091555050600b8101805490600061110c83612a80565b909155505060018101546001600160a01b03166000908152600460205260408120805487929061113d908490612bd9565b9250508190555060036000876001600160a01b03166001600160a01b031681526020019081526020016000206040518060c00160405280898152602001886001600160a01b0316815260200185815260200184815260200187815260200186151581525090806001815401808255809150506001900390600052602060002090600602016000909190919091506000820151816000015560208201518160010160006101000a8154816001600160a01b0302191690836001600160a01b0316021790555060408201518160020155606082015181600301556080820151816004015560a08201518160050160006101000a81548160ff0219169083151502179055505050856001600160a01b0316877fcb6423d7102200d403f38cefc45b39516d189ffca6d50af7e14706a1bf7ce4dd87876040516112889291909182521515602082015260400190565b60405180910390a350505050505050565b6001600160a01b0381166000908152600260209081526040918290208054835181840281018401909452808452606093928301828280156112f957602002820191906000526020600020905b8154815260200190600101908083116112e5575b50505050509050919050565b6001600160a01b0381166000908152600360209081526040808320805482518185028101850190935280835260609492939192909184015b828210156113b35760008481526020908190206040805160c08101825260068602909201805483526001808201546001600160a01b03168486015260028201549284019290925260038101546060840152600481015460808401526005015460ff16151560a0830152908352909201910161133d565b505050509050919050565b60018160ff16101580156113d6575060058160ff1611155b61140f5760405162461bcd60e51b815260206004820152600a602482015269526174696e6720312d3560b01b6044820152606401610725565b6000828152600160208190526040909120908101546001600160a01b031661146d5760405162461bcd60e51b815260206004820152601160248201527014d95c9d9a58d9481b9bdd08199bdd5b99607a1b6044820152606401610725565b336000908152600360205260408120815b81548110156114cc578582828154811061149a5761149a6129fe565b906000526020600020906006020160000154036114ba57600192506114cc565b806114c481612a80565b91505061147e565b508161151a5760405162461bcd60e51b815260206004820152601e60248201527f4d757374207573652073657276696365206265666f726520726174696e6700006044820152606401610725565b611525846014612bec565b60ff1683600c01600082825461153b9190612bd9565b9091555050600d8301805490600061155283612a80565b909155505060405160ff85168152339086907f1137ca995897283d2fbf2ebc25887370bf949a29c225af34f858e7ec1c69166d9060200160405180910390a35050505050565b600360205281600052604060002081815481106115b457600080fd5b60009182526020909120600690910201805460018201546002830154600384015460048501546005909501549396506001600160a01b03909216945092909160ff1686565b606060006116078385612bd9565b60065490915081111561161957506006545b60006116258583612c0f565b6001600160401b0381111561163c5761163c612305565b604051908082528060200260200182016040528015611665578160200160208202803683370190505b509050845b828110156116ca5760068181548110611685576116856129fe565b906000526020600020015482878361169d9190612c0f565b815181106116ad576116ad6129fe565b6020908102919091010152806116c281612a80565b91505061166a565b50949350505050565b6006546060906000906001600160401b038111156116f3576116f3612305565b60405190808252806020026020018201604052801561171c578160200160208202803683370190505b50905060008085858080601f01602080910402602001604051908101604052809392919081815260200183838082843760009201829052509394505050505b600654811015611897576000600160006006848154811061177e5761177e6129fe565b90600052602060002001548152602001908152602001600020905060008160020180546117aa906127fe565b80601f01602080910402602001604051908101604052809291908181526020018280546117d6906127fe565b80156118235780601f106117f857610100808354040283529160200191611823565b820191906000526020600020905b81548152906001019060200180831161180657829003601f168201915b505050505090506118348185611d84565b15611882576006838154811061184c5761184c6129fe565b9060005260206000200154868681518110611869576118696129fe565b60209081029190910101528461187e81612a80565b9550505b5050808061188f90612a80565b91505061175b565b506000826001600160401b038111156118b2576118b2612305565b6040519080825280602002602001820160405280156118db578160200160208202803683370190505b50905060005b83811015611932578481815181106118fb576118fb6129fe565b6020026020010151828281518110611915576119156129fe565b60209081029190910101528061192a81612a80565b9150506118e1565b509695505050505050565b611945611ebe565b60008281526001602081815260409283902083516101e08101855281548152928101546001600160a01b031691830191909152600281018054929391929184019161198f906127fe565b80601f01602080910402602001604051908101604052809291908181526020018280546119bb906127fe565b8015611a085780601f106119dd57610100808354040283529160200191611a08565b820191906000526020600020905b8154815290600101906020018083116119eb57829003601f168201915b50505050508152602001600382018054611a21906127fe565b80601f0160208091040260200160405190810160405280929190818152602001828054611a4d906127fe565b8015611a9a5780601f10611a6f57610100808354040283529160200191611a9a565b820191906000526020600020905b815481529060010190602001808311611a7d57829003601f168201915b50505050508152602001600482018054611ab3906127fe565b80601f0160208091040260200160405190810160405280929190818152602001828054611adf906127fe565b8015611b2c5780601f10611b0157610100808354040283529160200191611b2c565b820191906000526020600020905b815481529060010190602001808311611b0f57829003601f168201915b5050509183525050600582015460209091019060ff166004811115611b5357611b5361205f565b6004811115611b6457611b6461205f565b81526020016006820154815260200160078201548152602001600882015481526020016009820160009054906101000a900460ff16151515158152602001600a8201548152602001600b8201548152602001600c8201548152602001600d8201548152602001600e8201805480602002602001604051908101604052809291908181526020016000905b82821015611c9a578382906000526020600020018054611c0d906127fe565b80601f0160208091040260200160405190810160405280929190818152602001828054611c39906127fe565b8015611c865780601f10611c5b57610100808354040283529160200191611c86565b820191906000526020600020905b815481529060010190602001808311611c6957829003601f168201915b505050505081526020019060010190611bee565b505050915250909392505050565b60068181548110611cb857600080fd5b600091825260209091200154905081565b611cd1611d07565b6001600160a01b038116611cfb57604051631e4fbdf760e01b815260006004820152602401610725565b611d0481611d34565b50565b6000546001600160a01b03163314610eba5760405163118cdaa760e01b8152336004820152602401610725565b600080546001600160a01b038381166001600160a01b0319831681178455604051919092169283917f8be0079c531659141344cd1fd0a4f28419497f9722a3daafe3b4186f6b6457e09190a35050565b60008151600003611d9757506001610d4e565b815183511015611da957506000610d4e565b60005b82518451611dba9190612c0f565b8111611e5e57600160005b8451811015611e3957848181518110611de057611de06129fe565b01602001516001600160f81b03191686611dfa8386612bd9565b81518110611e0a57611e0a6129fe565b01602001516001600160f81b03191614611e275760009150611e39565b80611e3181612a80565b915050611dc5565b508015611e4b57600192505050610d4e565b5080611e5681612a80565b915050611dac565b5060009392505050565b828054828255906000526020600020908101928215611eae579160200282015b82811115611eae5782518290611e9e908261293f565b5091602001919060010190611e88565b50611eba929150611f53565b5090565b604051806101e001604052806000801916815260200160006001600160a01b0316815260200160608152602001606081526020016060815260200160006004811115611f0c57611f0c61205f565b815260200160008152602001600081526020016000815260200160001515815260200160008152602001600081526020016000815260200160008152602001606081525090565b80821115611eba576000611f678282611f70565b50600101611f53565b508054611f7c906127fe565b6000825580601f10611f8c575050565b601f016020900490600052602060002090810190611d0491905b80821115611eba5760008155600101611fa6565b80356001600160a01b0381168114611fd157600080fd5b919050565b60008060408385031215611fe957600080fd5b611ff283611fba565b946020939093013593505050565b60006020828403121561201257600080fd5b5035919050565b6000815180845260005b8181101561203f57602081850181015186830182015201612023565b506000602082860101526020601f19601f83011685010191505092915050565b634e487b7160e01b600052602160045260246000fd5b6005811061209357634e487b7160e01b600052602160045260246000fd5b9052565b8e81526001600160a01b038e1660208201526101c0604082015260006120c16101c083018f612019565b82810360608401526120d3818f612019565b905082810360808401526120e7818e612019565b9150506120f760a083018c612075565b8960c08301528860e08301528761010083015261211961012083018815159052565b856101408301528461016083015283610180830152826101a08301529f9e505050505050505050505050505050565b60008083601f84011261215a57600080fd5b5081356001600160401b0381111561217157600080fd5b60208301915083602082850101111561218957600080fd5b9250929050565b803560058110611fd157600080fd5b60008083601f8401126121b157600080fd5b5081356001600160401b038111156121c857600080fd5b6020830191508360208260051b850101111561218957600080fd5b6000806000806000806000806000806000806101008d8f03121561220657600080fd5b6001600160401b038d35111561221b57600080fd5b6122288e8e358f01612148565b909c509a506001600160401b0360208e0135111561224557600080fd5b6122558e60208f01358f01612148565b909a5098506001600160401b0360408e0135111561227257600080fd5b6122828e60408f01358f01612148565b909850965061229360608e01612190565b955060808d0135945060a08d0135935060c08d013592506001600160401b0360e08e013511156122c257600080fd5b6122d28e60e08f01358f0161219f565b81935080925050509295989b509295989b509295989b565b6000602082840312156122fc57600080fd5b610d8a82611fba565b634e487b7160e01b600052604160045260246000fd5b604051601f8201601f191681016001600160401b038111828210171561234357612343612305565b604052919050565b600082601f83011261235c57600080fd5b81356001600160401b0381111561237557612375612305565b612388601f8201601f191660200161231b565b81815284602083860101111561239d57600080fd5b816020850160208301376000918101602001919091529392505050565b600080604083850312156123cd57600080fd5b82356001600160401b038111156123e357600080fd5b6123ef8582860161234b565b95602094909401359450505050565b80358015158114611fd157600080fd5b600080600080600080600060a0888a03121561242957600080fd5b8735965060208801359550612440604089016123fe565b945060608801356001600160401b038082111561245c57600080fd5b6124688b838c01612148565b909650945060808a013591508082111561248157600080fd5b5061248e8a828b01612148565b989b979a50959850939692959293505050565b600080604083850312156124b457600080fd5b50508035926020909101359150565b600080602083850312156124d657600080fd5b82356001600160401b038111156124ec57600080fd5b6124f885828601612148565b90969095509350505050565b6020808252825182820181905260009190848201906040850190845b8181101561253c57835183529284019291840191600101612520565b50909695505050505050565b60008060008060008060c0878903121561256157600080fd5b8635955061257160208801611fba565b945060408701359350612586606088016123fe565b92506080870135915060a087013590509295509295509295565b602080825282518282018190526000919060409081850190868401855b8281101561261657815180518552868101516001600160a01b0316878601528581015186860152606080820151908601526080808201519086015260a09081015115159085015260c090930192908501906001016125bd565b5091979650505050505050565b6000806040838503121561263657600080fd5b82359150602083013560ff8116811461264e57600080fd5b809150509250929050565b600081518084526020808501808196508360051b8101915082860160005b8581101561261657828403895261268f848351612019565b98850198935090840190600101612677565b6020815281516020820152600060208301516126c860408401826001600160a01b03169052565b5060408301516101e08060608501526126e5610200850183612019565b91506060850151601f19808685030160808701526127038483612019565b935060808701519150808685030160a08701526127208483612019565b935060a0870151915061273660c0870183612075565b60c087015160e087810191909152870151610100808801919091528701516101208088019190915287015191506101406127738188018415159052565b87015161016087810191909152870151610180808801919091528701516101a0808801919091528701516101c0808801919091528701518685039091018387015290506127c08382612659565b9695505050505050565b6000602082840312156127dc57600080fd5b81356001600160401b038111156127f257600080fd5b610d4a8482850161234b565b600181811c9082168061281257607f821691505b60208210810361283257634e487b7160e01b600052602260045260246000fd5b50919050565b6bffffffffffffffffffffffff198660601b168152838560148301376014930192830191909152603482015260540192915050565b60006001600160401b038084111561288757612887612305565b8360051b602061289881830161231b565b8681529185019181810190368411156128b057600080fd5b865b848110156128e4578035868111156128ca5760008081fd5b6128d636828b0161234b565b8452509183019183016128b2565b50979650505050505050565b601f82111561293a57600081815260208120601f850160051c810160208610156129175750805b601f850160051c820191505b8181101561293657828155600101612923565b5050505b505050565b81516001600160401b0381111561295857612958612305565b61296c8161296684546127fe565b846128f0565b602080601f8311600181146129a157600084156129895750858301515b600019600386901b1c1916600185901b178555612936565b600085815260208120601f198616915b828110156129d0578886015182559484019460019091019084016129b1565b50858210156129ee5787850151600019600388901b60f8161c191681555b5050505050600190811b01905550565b634e487b7160e01b600052603260045260246000fd5b6000808335601e19843603018112612a2b57600080fd5b8301803591506001600160401b03821115612a4557600080fd5b60200191503681900382131561218957600080fd5b8183823760009101908152919050565b634e487b7160e01b600052601160045260246000fd5b600060018201612a9257612a92612a6a565b5060010190565b606081528360608201528385608083013760006080858301015260006080601f19601f8701168301019050612ad16020830185612075565b82604083015295945050505050565b6001600160401b03831115612af757612af7612305565b612b0b83612b0583546127fe565b836128f0565b6000601f841160018114612b3f5760008515612b275750838201355b600019600387901b1c1916600186901b178355612b99565b600083815260209020601f19861690835b82811015612b705786850135825560209485019460019092019101612b50565b5086821015612b8d5760001960f88860031b161c19848701351681555b505060018560011b0183555b5050505050565b8082028115828204841417610d4e57610d4e612a6a565b600082612bd457634e487b7160e01b600052601260045260246000fd5b500490565b80820180821115610d4e57610d4e612a6a565b60ff8181168382160290811690818114612c0857612c08612a6a565b5092915050565b81810381811115610d4e57610d4e612a6a56fea2646970667358221220d50c2fe8ccd6a82de5b4fb8db6735c39226e51fe4271abcf4306cf1b0325960564736f6c63430008140033","opcodes":"PUSH1 0x80 PUSH1 0x40 MSTORE PUSH3 0xF4240 PUSH1 0x9 SSTORE PUSH1 0x19 PUSH1 0xA SSTORE CALLVALUE DUP1 ISZERO PUSH3 0x1D JUMPI PUSH1 0x0 DUP1 REVERT JUMPDEST POP CALLER DUP1 PUSH3 0x45 JUMPI PUSH1 0x40 MLOAD PUSH4 0x1E4FBDF7 PUSH1 0xE0 SHL DUP2 MSTORE PUSH1 0x0 PUSH1 0x4 DUP3 ADD MSTORE PUSH1 0x24 ADD PUSH1 0x40 MLOAD DUP1 SWAP2 SUB SWAP1 REVERT JUMPDEST PUSH3 0x50 DUP2 PUSH3 0x7B JUMP JUMPDEST POP PUSH1 0x1 PUSH32 0x9B779B17422D0DF92223018B32B4D1FA46E071723D6817E2486D003BECC55F00 SSTORE PUSH3 0xCB JUMP JUMPDEST PUSH1 0x0 DUP1 SLOAD PUSH1 0x1 PUSH1 0x1 PUSH1 0xA0 SHL SUB DUP4 DUP2 AND PUSH1 0x1 PUSH1 0x1 PUSH1 0xA0 SHL SUB NOT DUP4 AND DUP2 OR DUP5 SSTORE PUSH1 0x40 MLOAD SWAP2 SWAP1 SWAP3 AND SWAP3 DUP4 SWAP2 PUSH32 0x8BE0079C531659141344CD1FD0A4F28419497F9722A3DAAFE3B4186F6B6457E0 SWAP2 SWAP1 LOG3 POP POP JUMP JUMPDEST PUSH2 0x2C58 DUP1 PUSH3 0xDB PUSH1 0x0 CODECOPY PUSH1 0x0 RETURN INVALID PUSH1 0x80 PUSH1 0x40 MSTORE CALLVALUE DUP1 ISZERO PUSH2 0x10 JUMPI PUSH1 0x0 DUP1 REVERT JUMPDEST POP PUSH1 0x4 CALLDATASIZE LT PUSH2 0x1CF JUMPI PUSH1 0x0 CALLDATALOAD PUSH1 0xE0 SHR DUP1 PUSH4 0x715018A6 GT PUSH2 0x104 JUMPI DUP1 PUSH4 0xBF009230 GT PUSH2 0xA2 JUMPI DUP1 PUSH4 0xEE3E1A0E GT PUSH2 0x71 JUMPI DUP1 PUSH4 0xEE3E1A0E EQ PUSH2 0x442 JUMPI DUP1 PUSH4 0xF0609F35 EQ PUSH2 0x455 JUMPI DUP1 PUSH4 0xF2FDE38B EQ PUSH2 0x468 JUMPI DUP1 PUSH4 0xFA2114C5 EQ PUSH2 0x47B JUMPI PUSH1 0x0 DUP1 REVERT JUMPDEST DUP1 PUSH4 0xBF009230 EQ PUSH2 0x3B2 JUMPI DUP1 PUSH4 0xBF00FAE3 EQ PUSH2 0x3FC JUMPI DUP1 PUSH4 0xCE8CCE7F EQ PUSH2 0x40F JUMPI DUP1 PUSH4 0xDA47D856 EQ PUSH2 0x422 JUMPI PUSH1 0x0 DUP1 REVERT JUMPDEST DUP1 PUSH4 0x9363104F GT PUSH2 0xDE JUMPI DUP1 PUSH4 0x9363104F EQ PUSH2 0x359 JUMPI DUP1 PUSH4 0x9747AC5F EQ PUSH2 0x36C JUMPI DUP1 PUSH4 0x9FA3A570 EQ PUSH2 0x37F JUMPI DUP1 PUSH4 0xA8DD46D0 EQ PUSH2 0x39F JUMPI PUSH1 0x0 DUP1 REVERT JUMPDEST DUP1 PUSH4 0x715018A6 EQ PUSH2 0x309 JUMPI DUP1 PUSH4 0x812D966A EQ PUSH2 0x311 JUMPI DUP1 PUSH4 0x8DA5CB5B EQ PUSH2 0x334 JUMPI PUSH1 0x0 DUP1 REVERT JUMPDEST DUP1 PUSH4 0x2F0ADF91 GT PUSH2 0x171 JUMPI DUP1 PUSH4 0x53031040 GT PUSH2 0x14B JUMPI DUP1 PUSH4 0x53031040 EQ PUSH2 0x2BA JUMPI DUP1 PUSH4 0x5E56198E EQ PUSH2 0x2CD JUMPI DUP1 PUSH4 0x6301AC8F EQ PUSH2 0x2E0 JUMPI DUP1 PUSH4 0x6E9B0D6D EQ PUSH2 0x2E9 JUMPI PUSH1 0x0 DUP1 REVERT JUMPDEST DUP1 PUSH4 0x2F0ADF91 EQ PUSH2 0x28B JUMPI DUP1 PUSH4 0x4A9DF43D EQ PUSH2 0x29E JUMPI DUP1 PUSH4 0x51408DE3 EQ PUSH2 0x2A7 JUMPI PUSH1 0x0 DUP1 REVERT JUMPDEST DUP1 PUSH4 0x159A6594 GT PUSH2 0x1AD JUMPI DUP1 PUSH4 0x159A6594 EQ PUSH2 0x23A JUMPI DUP1 PUSH4 0x1F0B70ED EQ PUSH2 0x25A JUMPI DUP1 PUSH4 0x22DCD13E EQ PUSH2 0x26F JUMPI DUP1 PUSH4 0x2733AEC9 EQ PUSH2 0x278 JUMPI PUSH1 0x0 DUP1 REVERT JUMPDEST DUP1 PUSH4 0x3731B9E EQ PUSH2 0x1D4 JUMPI DUP1 PUSH4 0xA790EB7 EQ PUSH2 0x1FA JUMPI DUP1 PUSH4 0xCD32E53 EQ PUSH2 0x227 JUMPI JUMPDEST PUSH1 0x0 DUP1 REVERT JUMPDEST PUSH2 0x1E7 PUSH2 0x1E2 CALLDATASIZE PUSH1 0x4 PUSH2 0x1FD6 JUMP JUMPDEST PUSH2 0x4A6 JUMP JUMPDEST PUSH1 0x40 MLOAD SWAP1 DUP2 MSTORE PUSH1 0x20 ADD JUMPDEST PUSH1 0x40 MLOAD DUP1 SWAP2 SUB SWAP1 RETURN JUMPDEST PUSH2 0x20D PUSH2 0x208 CALLDATASIZE PUSH1 0x4 PUSH2 0x2000 JUMP JUMPDEST PUSH2 0x4D7 JUMP JUMPDEST PUSH1 0x40 MLOAD PUSH2 0x1F1 SWAP15 SWAP14 SWAP13 SWAP12 SWAP11 SWAP10 SWAP9 SWAP8 SWAP7 SWAP6 SWAP5 SWAP4 SWAP3 SWAP2 SWAP1 PUSH2 0x2097 JUMP JUMPDEST PUSH2 0x1E7 PUSH2 0x235 CALLDATASIZE PUSH1 0x4 PUSH2 0x21E3 JUMP JUMPDEST PUSH2 0x6EA JUMP JUMPDEST PUSH2 0x1E7 PUSH2 0x248 CALLDATASIZE PUSH1 0x4 PUSH2 0x22EA JUMP JUMPDEST PUSH1 0x4 PUSH1 0x20 MSTORE PUSH1 0x0 SWAP1 DUP2 MSTORE PUSH1 0x40 SWAP1 KECCAK256 SLOAD DUP2 JUMP JUMPDEST PUSH2 0x26D PUSH2 0x268 CALLDATASIZE PUSH1 0x4 PUSH2 0x2000 JUMP JUMPDEST PUSH2 0xB72 JUMP JUMPDEST STOP JUMPDEST PUSH2 0x1E7 PUSH1 0xA SLOAD DUP2 JUMP JUMPDEST PUSH2 0x1E7 PUSH2 0x286 CALLDATASIZE PUSH1 0x4 PUSH2 0x23BA JUMP JUMPDEST PUSH2 0xB7F JUMP JUMPDEST PUSH2 0x26D PUSH2 0x299 CALLDATASIZE PUSH1 0x4 PUSH2 0x240E JUMP JUMPDEST PUSH2 0xBAA JUMP JUMPDEST PUSH2 0x1E7 PUSH1 0x9 SLOAD DUP2 JUMP JUMPDEST PUSH2 0x1E7 PUSH2 0x2B5 CALLDATASIZE PUSH1 0x4 PUSH2 0x24A1 JUMP JUMPDEST PUSH2 0xCDD JUMP JUMPDEST PUSH2 0x1E7 PUSH2 0x2C8 CALLDATASIZE PUSH1 0x4 PUSH2 0x2000 JUMP JUMPDEST PUSH2 0xD54 JUMP JUMPDEST PUSH2 0x26D PUSH2 0x2DB CALLDATASIZE PUSH1 0x4 PUSH2 0x22EA JUMP JUMPDEST PUSH2 0xD91 JUMP JUMPDEST PUSH2 0x1E7 PUSH1 0x7 SLOAD DUP2 JUMP JUMPDEST PUSH2 0x2FC PUSH2 0x2F7 CALLDATASIZE PUSH1 0x4 PUSH2 0x24C3 JUMP JUMPDEST PUSH2 0xE35 JUMP JUMPDEST PUSH1 0x40 MLOAD PUSH2 0x1F1 SWAP2 SWAP1 PUSH2 0x2504 JUMP JUMPDEST PUSH2 0x26D PUSH2 0xEA8 JUMP JUMPDEST PUSH2 0x319 PUSH2 0xEBC JUMP JUMPDEST PUSH1 0x40 DUP1 MLOAD SWAP4 DUP5 MSTORE PUSH1 0x20 DUP5 ADD SWAP3 SWAP1 SWAP3 MSTORE SWAP1 DUP3 ADD MSTORE PUSH1 0x60 ADD PUSH2 0x1F1 JUMP JUMPDEST PUSH1 0x0 SLOAD PUSH1 0x1 PUSH1 0x1 PUSH1 0xA0 SHL SUB AND JUMPDEST PUSH1 0x40 MLOAD PUSH1 0x1 PUSH1 0x1 PUSH1 0xA0 SHL SUB SWAP1 SWAP2 AND DUP2 MSTORE PUSH1 0x20 ADD PUSH2 0x1F1 JUMP JUMPDEST PUSH2 0x26D PUSH2 0x367 CALLDATASIZE PUSH1 0x4 PUSH2 0x2548 JUMP JUMPDEST PUSH2 0x1072 JUMP JUMPDEST PUSH2 0x2FC PUSH2 0x37A CALLDATASIZE PUSH1 0x4 PUSH2 0x22EA JUMP JUMPDEST PUSH2 0x1299 JUMP JUMPDEST PUSH2 0x392 PUSH2 0x38D CALLDATASIZE PUSH1 0x4 PUSH2 0x22EA JUMP JUMPDEST PUSH2 0x1305 JUMP JUMPDEST PUSH1 0x40 MLOAD PUSH2 0x1F1 SWAP2 SWAP1 PUSH2 0x25A0 JUMP JUMPDEST PUSH2 0x26D PUSH2 0x3AD CALLDATASIZE PUSH1 0x4 PUSH2 0x2623 JUMP JUMPDEST PUSH2 0x13BE JUMP JUMPDEST PUSH2 0x3C5 PUSH2 0x3C0 CALLDATASIZE PUSH1 0x4 PUSH2 0x1FD6 JUMP JUMPDEST PUSH2 0x1598 JUMP JUMPDEST PUSH1 0x40 DUP1 MLOAD SWAP7 DUP8 MSTORE PUSH1 0x1 PUSH1 0x1 PUSH1 0xA0 SHL SUB SWAP1 SWAP6 AND PUSH1 0x20 DUP8 ADD MSTORE SWAP4 DUP6 ADD SWAP3 SWAP1 SWAP3 MSTORE PUSH1 0x60 DUP5 ADD MSTORE PUSH1 0x80 DUP4 ADD MSTORE ISZERO ISZERO PUSH1 0xA0 DUP3 ADD MSTORE PUSH1 0xC0 ADD PUSH2 0x1F1 JUMP JUMPDEST PUSH2 0x2FC PUSH2 0x40A CALLDATASIZE PUSH1 0x4 PUSH2 0x24A1 JUMP JUMPDEST PUSH2 0x15F9 JUMP JUMPDEST PUSH2 0x2FC PUSH2 0x41D CALLDATASIZE PUSH1 0x4 PUSH2 0x24C3 JUMP JUMPDEST PUSH2 0x16D3 JUMP JUMPDEST PUSH2 0x435 PUSH2 0x430 CALLDATASIZE PUSH1 0x4 PUSH2 0x2000 JUMP JUMPDEST PUSH2 0x193D JUMP JUMPDEST PUSH1 0x40 MLOAD PUSH2 0x1F1 SWAP2 SWAP1 PUSH2 0x26A1 JUMP JUMPDEST PUSH2 0x1E7 PUSH2 0x450 CALLDATASIZE PUSH1 0x4 PUSH2 0x2000 JUMP JUMPDEST PUSH2 0x1CA8 JUMP JUMPDEST PUSH1 0x8 SLOAD PUSH2 0x341 SWAP1 PUSH1 0x1 PUSH1 0x1 PUSH1 0xA0 SHL SUB AND DUP2 JUMP JUMPDEST PUSH2 0x26D PUSH2 0x476 CALLDATASIZE PUSH1 0x4 PUSH2 0x22EA JUMP JUMPDEST PUSH2 0x1CC9 JUMP JUMPDEST PUSH2 0x1E7 PUSH2 0x489 CALLDATASIZE PUSH1 0x4 PUSH2 0x27CA JUMP JUMPDEST DUP1 MLOAD PUSH1 0x20 DUP2 DUP4 ADD DUP2 ADD DUP1 MLOAD PUSH1 0xB DUP3 MSTORE SWAP3 DUP3 ADD SWAP2 SWAP1 SWAP4 ADD KECCAK256 SWAP2 MSTORE SLOAD DUP2 JUMP JUMPDEST PUSH1 0x2 PUSH1 0x20 MSTORE DUP2 PUSH1 0x0 MSTORE PUSH1 0x40 PUSH1 0x0 KECCAK256 DUP2 DUP2 SLOAD DUP2 LT PUSH2 0x4C2 JUMPI PUSH1 0x0 DUP1 REVERT JUMPDEST SWAP1 PUSH1 0x0 MSTORE PUSH1 0x20 PUSH1 0x0 KECCAK256 ADD PUSH1 0x0 SWAP2 POP SWAP2 POP POP SLOAD DUP2 JUMP JUMPDEST PUSH1 0x1 PUSH1 0x20 DUP2 SWAP1 MSTORE PUSH1 0x0 SWAP2 DUP3 MSTORE PUSH1 0x40 SWAP1 SWAP2 KECCAK256 DUP1 SLOAD SWAP2 DUP2 ADD SLOAD PUSH1 0x2 DUP3 ADD DUP1 SLOAD PUSH1 0x1 PUSH1 0x1 PUSH1 0xA0 SHL SUB SWAP1 SWAP3 AND SWAP3 SWAP2 PUSH2 0x50A SWAP1 PUSH2 0x27FE JUMP JUMPDEST DUP1 PUSH1 0x1F ADD PUSH1 0x20 DUP1 SWAP2 DIV MUL PUSH1 0x20 ADD PUSH1 0x40 MLOAD SWAP1 DUP2 ADD PUSH1 0x40 MSTORE DUP1 SWAP3 SWAP2 SWAP1 DUP2 DUP2 MSTORE PUSH1 0x20 ADD DUP3 DUP1 SLOAD PUSH2 0x536 SWAP1 PUSH2 0x27FE JUMP JUMPDEST DUP1 ISZERO PUSH2 0x583 JUMPI DUP1 PUSH1 0x1F LT PUSH2 0x558 JUMPI PUSH2 0x100 DUP1 DUP4 SLOAD DIV MUL DUP4 MSTORE SWAP2 PUSH1 0x20 ADD SWAP2 PUSH2 0x583 JUMP JUMPDEST DUP3 ADD SWAP2 SWAP1 PUSH1 0x0 MSTORE PUSH1 0x20 PUSH1 0x0 KECCAK256 SWAP1 JUMPDEST DUP2 SLOAD DUP2 MSTORE SWAP1 PUSH1 0x1 ADD SWAP1 PUSH1 0x20 ADD DUP1 DUP4 GT PUSH2 0x566 JUMPI DUP3 SWAP1 SUB PUSH1 0x1F AND DUP3 ADD SWAP2 JUMPDEST POP POP POP POP POP SWAP1 DUP1 PUSH1 0x3 ADD DUP1 SLOAD PUSH2 0x598 SWAP1 PUSH2 0x27FE JUMP JUMPDEST DUP1 PUSH1 0x1F ADD PUSH1 0x20 DUP1 SWAP2 DIV MUL PUSH1 0x20 ADD PUSH1 0x40 MLOAD SWAP1 DUP2 ADD PUSH1 0x40 MSTORE DUP1 SWAP3 SWAP2 SWAP1 DUP2 DUP2 MSTORE PUSH1 0x20 ADD DUP3 DUP1 SLOAD PUSH2 0x5C4 SWAP1 PUSH2 0x27FE JUMP JUMPDEST DUP1 ISZERO PUSH2 0x611 JUMPI DUP1 PUSH1 0x1F LT PUSH2 0x5E6 JUMPI PUSH2 0x100 DUP1 DUP4 SLOAD DIV MUL DUP4 MSTORE SWAP2 PUSH1 0x20 ADD SWAP2 PUSH2 0x611 JUMP JUMPDEST DUP3 ADD SWAP2 SWAP1 PUSH1 0x0 MSTORE PUSH1 0x20 PUSH1 0x0 KECCAK256 SWAP1 JUMPDEST DUP2 SLOAD DUP2 MSTORE SWAP1 PUSH1 0x1 ADD SWAP1 PUSH1 0x20 ADD DUP1 DUP4 GT PUSH2 0x5F4 JUMPI DUP3 SWAP1 SUB PUSH1 0x1F AND DUP3 ADD SWAP2 JUMPDEST POP POP POP POP POP SWAP1 DUP1 PUSH1 0x4 ADD DUP1 SLOAD PUSH2 0x626 SWAP1 PUSH2 0x27FE JUMP JUMPDEST DUP1 PUSH1 0x1F ADD PUSH1 0x20 DUP1 SWAP2 DIV MUL PUSH1 0x20 ADD PUSH1 0x40 MLOAD SWAP1 DUP2 ADD PUSH1 0x40 MSTORE DUP1 SWAP3 SWAP2 SWAP1 DUP2 DUP2 MSTORE PUSH1 0x20 ADD DUP3 DUP1 SLOAD PUSH2 0x652 SWAP1 PUSH2 0x27FE JUMP JUMPDEST DUP1 ISZERO PUSH2 0x69F JUMPI DUP1 PUSH1 0x1F LT PUSH2 0x674 JUMPI PUSH2 0x100 DUP1 DUP4 SLOAD DIV MUL DUP4 MSTORE SWAP2 PUSH1 0x20 ADD SWAP2 PUSH2 0x69F JUMP JUMPDEST DUP3 ADD SWAP2 SWAP1 PUSH1 0x0 MSTORE PUSH1 0x20 PUSH1 0x0 KECCAK256 SWAP1 JUMPDEST DUP2 SLOAD DUP2 MSTORE SWAP1 PUSH1 0x1 ADD SWAP1 PUSH1 0x20 ADD DUP1 DUP4 GT PUSH2 0x682 JUMPI DUP3 SWAP1 SUB PUSH1 0x1F AND DUP3 ADD SWAP2 JUMPDEST POP POP POP POP PUSH1 0x5 DUP4 ADD SLOAD PUSH1 0x6 DUP5 ADD SLOAD PUSH1 0x7 DUP6 ADD SLOAD PUSH1 0x8 DUP7 ADD SLOAD PUSH1 0x9 DUP8 ADD SLOAD PUSH1 0xA DUP9 ADD SLOAD PUSH1 0xB DUP10 ADD SLOAD PUSH1 0xC DUP11 ADD SLOAD PUSH1 0xD SWAP1 SWAP11 ADD SLOAD SWAP9 SWAP10 PUSH1 0xFF SWAP8 DUP9 AND SWAP10 SWAP7 SWAP9 POP SWAP5 SWAP7 SWAP4 SWAP6 SWAP4 SWAP1 SWAP3 AND SWAP4 SWAP1 SWAP3 DUP15 JUMP JUMPDEST PUSH1 0x0 DUP12 PUSH2 0x72E JUMPI PUSH1 0x40 MLOAD PUSH3 0x461BCD PUSH1 0xE5 SHL DUP2 MSTORE PUSH1 0x20 PUSH1 0x4 DUP3 ADD MSTORE PUSH1 0xD PUSH1 0x24 DUP3 ADD MSTORE PUSH13 0x13985B59481C995C5D5A5C9959 PUSH1 0x9A SHL PUSH1 0x44 DUP3 ADD MSTORE PUSH1 0x64 ADD JUMPDEST PUSH1 0x40 MLOAD DUP1 SWAP2 SUB SWAP1 REVERT JUMPDEST PUSH1 0x9 SLOAD DUP7 LT ISZERO PUSH2 0x76F JUMPI PUSH1 0x40 MLOAD PUSH3 0x461BCD PUSH1 0xE5 SHL DUP2 MSTORE PUSH1 0x20 PUSH1 0x4 DUP3 ADD MSTORE PUSH1 0xC PUSH1 0x24 DUP3 ADD MSTORE PUSH12 0x5261746520746F6F206C6F77 PUSH1 0xA0 SHL PUSH1 0x44 DUP3 ADD MSTORE PUSH1 0x64 ADD PUSH2 0x725 JUMP JUMPDEST DUP5 DUP5 LT ISZERO PUSH2 0x7B3 JUMPI PUSH1 0x40 MLOAD PUSH3 0x461BCD PUSH1 0xE5 SHL DUP2 MSTORE PUSH1 0x20 PUSH1 0x4 DUP3 ADD MSTORE PUSH1 0x11 PUSH1 0x24 DUP3 ADD MSTORE PUSH17 0x496E76616C6964206475726174696F6E73 PUSH1 0x78 SHL PUSH1 0x44 DUP3 ADD MSTORE PUSH1 0x64 ADD PUSH2 0x725 JUMP JUMPDEST CALLER DUP14 DUP14 TIMESTAMP PUSH1 0x7 SLOAD PUSH1 0x40 MLOAD PUSH1 0x20 ADD PUSH2 0x7CE SWAP6 SWAP5 SWAP4 SWAP3 SWAP2 SWAP1 PUSH2 0x2838 JUMP JUMPDEST PUSH1 0x40 MLOAD PUSH1 0x20 DUP2 DUP4 SUB SUB DUP2 MSTORE SWAP1 PUSH1 0x40 MSTORE DUP1 MLOAD SWAP1 PUSH1 0x20 ADD KECCAK256 SWAP1 POP PUSH1 0x40 MLOAD DUP1 PUSH2 0x1E0 ADD PUSH1 0x40 MSTORE DUP1 DUP3 DUP2 MSTORE PUSH1 0x20 ADD CALLER PUSH1 0x1 PUSH1 0x1 PUSH1 0xA0 SHL SUB AND DUP2 MSTORE PUSH1 0x20 ADD DUP15 DUP15 DUP1 DUP1 PUSH1 0x1F ADD PUSH1 0x20 DUP1 SWAP2 DIV MUL PUSH1 0x20 ADD PUSH1 0x40 MLOAD SWAP1 DUP2 ADD PUSH1 0x40 MSTORE DUP1 SWAP4 SWAP3 SWAP2 SWAP1 DUP2 DUP2 MSTORE PUSH1 0x20 ADD DUP4 DUP4 DUP1 DUP3 DUP5 CALLDATACOPY PUSH1 0x0 SWAP3 ADD SWAP2 SWAP1 SWAP2 MSTORE POP POP POP SWAP1 DUP3 MSTORE POP PUSH1 0x40 DUP1 MLOAD PUSH1 0x20 PUSH1 0x1F DUP16 ADD DUP2 SWAP1 DIV DUP2 MUL DUP3 ADD DUP2 ADD SWAP1 SWAP3 MSTORE DUP14 DUP2 MSTORE SWAP2 DUP2 ADD SWAP2 SWAP1 DUP15 SWAP1 DUP15 SWAP1 DUP2 SWAP1 DUP5 ADD DUP4 DUP3 DUP1 DUP3 DUP5 CALLDATACOPY PUSH1 0x0 SWAP3 ADD SWAP2 SWAP1 SWAP2 MSTORE POP POP POP SWAP1 DUP3 MSTORE POP PUSH1 0x40 DUP1 MLOAD PUSH1 0x20 PUSH1 0x1F DUP14 ADD DUP2 SWAP1 DIV DUP2 MUL DUP3 ADD DUP2 ADD SWAP1 SWAP3 MSTORE DUP12 DUP2 MSTORE SWAP2 DUP2 ADD SWAP2 SWAP1 DUP13 SWAP1 DUP13 SWAP1 DUP2 SWAP1 DUP5 ADD DUP4 DUP3 DUP1 DUP3 DUP5 CALLDATACOPY PUSH1 0x0 SWAP3 ADD SWAP2 SWAP1 SWAP2 MSTORE POP POP POP SWAP1 DUP3 MSTORE POP PUSH1 0x20 ADD DUP9 PUSH1 0x4 DUP2 GT ISZERO PUSH2 0x8CB JUMPI PUSH2 0x8CB PUSH2 0x205F JUMP JUMPDEST DUP2 MSTORE PUSH1 0x20 ADD DUP8 DUP2 MSTORE PUSH1 0x20 ADD DUP7 DUP2 MSTORE PUSH1 0x20 ADD DUP6 DUP2 MSTORE PUSH1 0x20 ADD PUSH1 0x1 ISZERO ISZERO DUP2 MSTORE PUSH1 0x20 ADD PUSH1 0x0 DUP2 MSTORE PUSH1 0x20 ADD PUSH1 0x0 DUP2 MSTORE PUSH1 0x20 ADD PUSH1 0x0 DUP2 MSTORE PUSH1 0x20 ADD PUSH1 0x0 DUP2 MSTORE PUSH1 0x20 ADD DUP5 DUP5 SWAP1 PUSH2 0x914 SWAP2 SWAP1 PUSH2 0x286D JUMP JUMPDEST SWAP1 MSTORE PUSH1 0x0 DUP3 DUP2 MSTORE PUSH1 0x1 PUSH1 0x20 DUP2 DUP2 MSTORE PUSH1 0x40 SWAP3 DUP4 SWAP1 KECCAK256 DUP5 MLOAD DUP2 SSTORE SWAP1 DUP5 ADD MLOAD SWAP2 DUP2 ADD DUP1 SLOAD PUSH1 0x1 PUSH1 0x1 PUSH1 0xA0 SHL SUB NOT AND PUSH1 0x1 PUSH1 0x1 PUSH1 0xA0 SHL SUB SWAP1 SWAP4 AND SWAP3 SWAP1 SWAP3 OR SWAP1 SWAP2 SSTORE SWAP1 DUP3 ADD MLOAD PUSH1 0x2 DUP3 ADD SWAP1 PUSH2 0x964 SWAP1 DUP3 PUSH2 0x293F JUMP JUMPDEST POP PUSH1 0x60 DUP3 ADD MLOAD PUSH1 0x3 DUP3 ADD SWAP1 PUSH2 0x979 SWAP1 DUP3 PUSH2 0x293F JUMP JUMPDEST POP PUSH1 0x80 DUP3 ADD MLOAD PUSH1 0x4 DUP3 ADD SWAP1 PUSH2 0x98E SWAP1 DUP3 PUSH2 0x293F JUMP JUMPDEST POP PUSH1 0xA0 DUP3 ADD MLOAD PUSH1 0x5 DUP3 ADD DUP1 SLOAD PUSH1 0xFF NOT AND PUSH1 0x1 DUP4 PUSH1 0x4 DUP2 GT ISZERO PUSH2 0x9B2 JUMPI PUSH2 0x9B2 PUSH2 0x205F JUMP JUMPDEST MUL OR SWAP1 SSTORE POP PUSH1 0xC0 DUP3 ADD MLOAD PUSH1 0x6 DUP3 ADD SSTORE PUSH1 0xE0 DUP3 ADD MLOAD PUSH1 0x7 DUP3 ADD SSTORE PUSH2 0x100 DUP3 ADD MLOAD PUSH1 0x8 DUP3 ADD SSTORE PUSH2 0x120 DUP3 ADD MLOAD PUSH1 0x9 DUP3 ADD DUP1 SLOAD PUSH1 0xFF NOT AND SWAP2 ISZERO ISZERO SWAP2 SWAP1 SWAP2 OR SWAP1 SSTORE PUSH2 0x140 DUP3 ADD MLOAD PUSH1 0xA DUP3 ADD SSTORE PUSH2 0x160 DUP3 ADD MLOAD PUSH1 0xB DUP3 ADD SSTORE PUSH2 0x180 DUP3 ADD MLOAD PUSH1 0xC DUP3 ADD SSTORE PUSH2 0x1A0 DUP3 ADD MLOAD PUSH1 0xD DUP3 ADD SSTORE PUSH2 0x1C0 DUP3 ADD MLOAD DUP1 MLOAD PUSH2 0xA37 SWAP2 PUSH1 0xE DUP5 ADD SWAP2 PUSH1 0x20 SWAP1 SWAP2 ADD SWAP1 PUSH2 0x1E68 JUMP JUMPDEST POP POP CALLER PUSH1 0x0 SWAP1 DUP2 MSTORE PUSH1 0x2 PUSH1 0x20 SWAP1 DUP2 MSTORE PUSH1 0x40 DUP3 KECCAK256 DUP1 SLOAD PUSH1 0x1 DUP2 DUP2 ADD DUP4 SSTORE SWAP2 DUP5 MSTORE SWAP2 DUP4 KECCAK256 SWAP1 SWAP2 ADD DUP5 SWAP1 SSTORE PUSH1 0x6 DUP1 SLOAD SWAP2 DUP3 ADD DUP2 SSTORE DUP3 MSTORE PUSH32 0xF652222313E28459528D920B65115C16C04F3EFC82AAEDC97BE59F3F377C0D3F ADD DUP4 SWAP1 SSTORE SWAP1 POP JUMPDEST DUP3 DUP2 LT ISZERO PUSH2 0xB04 JUMPI PUSH1 0x5 DUP5 DUP5 DUP4 DUP2 DUP2 LT PUSH2 0xAAE JUMPI PUSH2 0xAAE PUSH2 0x29FE JUMP JUMPDEST SWAP1 POP PUSH1 0x20 MUL DUP2 ADD SWAP1 PUSH2 0xAC0 SWAP2 SWAP1 PUSH2 0x2A14 JUMP JUMPDEST PUSH1 0x40 MLOAD PUSH2 0xACE SWAP3 SWAP2 SWAP1 PUSH2 0x2A5A JUMP JUMPDEST SWAP1 DUP2 MSTORE PUSH1 0x40 MLOAD PUSH1 0x20 SWAP2 DUP2 SWAP1 SUB DUP3 ADD SWAP1 KECCAK256 DUP1 SLOAD PUSH1 0x1 DUP2 ADD DUP3 SSTORE PUSH1 0x0 SWAP2 DUP3 MSTORE SWAP2 SWAP1 KECCAK256 ADD DUP3 SWAP1 SSTORE DUP1 PUSH2 0xAFC DUP2 PUSH2 0x2A80 JUMP JUMPDEST SWAP2 POP POP PUSH2 0xA92 JUMP JUMPDEST POP PUSH1 0x7 DUP1 SLOAD SWAP1 PUSH1 0x0 PUSH2 0xB15 DUP4 PUSH2 0x2A80 JUMP JUMPDEST SWAP2 SWAP1 POP SSTORE POP CALLER PUSH1 0x1 PUSH1 0x1 PUSH1 0xA0 SHL SUB AND DUP2 PUSH32 0x8B7FA420224EB662D5FDA1620DEAB4B0382012C642A8510E687959052A29EF8D DUP16 DUP16 DUP12 DUP12 PUSH1 0x40 MLOAD PUSH2 0xB5A SWAP5 SWAP4 SWAP3 SWAP2 SWAP1 PUSH2 0x2A99 JUMP JUMPDEST PUSH1 0x40 MLOAD DUP1 SWAP2 SUB SWAP1 LOG3 SWAP13 SWAP12 POP POP POP POP POP POP POP POP POP POP POP POP JUMP JUMPDEST PUSH2 0xB7A PUSH2 0x1D07 JUMP JUMPDEST PUSH1 0x9 SSTORE JUMP JUMPDEST DUP2 MLOAD PUSH1 0x20 DUP2 DUP5 ADD DUP2 ADD DUP1 MLOAD PUSH1 0x5 DUP3 MSTORE SWAP3 DUP3 ADD SWAP2 DUP6 ADD SWAP2 SWAP1 SWAP2 KECCAK256 SWAP2 SWAP1 MSTORE DUP1 SLOAD DUP3 SWAP1 DUP2 LT PUSH2 0x4C2 JUMPI PUSH1 0x0 DUP1 REVERT JUMPDEST PUSH1 0x0 DUP8 DUP2 MSTORE PUSH1 0x1 PUSH1 0x20 DUP2 SWAP1 MSTORE PUSH1 0x40 SWAP1 SWAP2 KECCAK256 SWAP1 DUP2 ADD SLOAD PUSH1 0x1 PUSH1 0x1 PUSH1 0xA0 SHL SUB AND CALLER EQ PUSH2 0xC05 JUMPI PUSH1 0x40 MLOAD PUSH3 0x461BCD PUSH1 0xE5 SHL DUP2 MSTORE PUSH1 0x20 PUSH1 0x4 DUP3 ADD MSTORE PUSH1 0xC PUSH1 0x24 DUP3 ADD MSTORE PUSH12 0x2737BA10383937BB34B232B9 PUSH1 0xA1 SHL PUSH1 0x44 DUP3 ADD MSTORE PUSH1 0x64 ADD PUSH2 0x725 JUMP JUMPDEST DUP7 ISZERO PUSH2 0xC54 JUMPI PUSH1 0x9 SLOAD DUP8 LT ISZERO PUSH2 0xC4C JUMPI PUSH1 0x40 MLOAD PUSH3 0x461BCD PUSH1 0xE5 SHL DUP2 MSTORE PUSH1 0x20 PUSH1 0x4 DUP3 ADD MSTORE PUSH1 0xC PUSH1 0x24 DUP3 ADD MSTORE PUSH12 0x5261746520746F6F206C6F77 PUSH1 0xA0 SHL PUSH1 0x44 DUP3 ADD MSTORE PUSH1 0x64 ADD PUSH2 0x725 JUMP JUMPDEST PUSH1 0x6 DUP2 ADD DUP8 SWAP1 SSTORE JUMPDEST PUSH1 0x9 DUP2 ADD DUP1 SLOAD PUSH1 0xFF NOT AND DUP8 ISZERO ISZERO OR SWAP1 SSTORE DUP4 ISZERO PUSH2 0xC7B JUMPI PUSH1 0x3 DUP2 ADD PUSH2 0xC79 DUP6 DUP8 DUP4 PUSH2 0x2AE0 JUMP JUMPDEST POP JUMPDEST DUP2 ISZERO PUSH2 0xC92 JUMPI PUSH1 0x4 DUP2 ADD PUSH2 0xC90 DUP4 DUP6 DUP4 PUSH2 0x2AE0 JUMP JUMPDEST POP JUMPDEST PUSH1 0x6 DUP2 ADD SLOAD PUSH1 0x40 DUP1 MLOAD SWAP2 DUP3 MSTORE DUP8 ISZERO ISZERO PUSH1 0x20 DUP4 ADD MSTORE DUP10 SWAP2 PUSH32 0xEE82BDDF4EE320AD7BC2D70C4CFEEED46BAD1EB45488A9A70C292BB9A24F1EBD SWAP2 ADD PUSH1 0x40 MLOAD DUP1 SWAP2 SUB SWAP1 LOG2 POP POP POP POP POP POP POP POP JUMP JUMPDEST PUSH1 0x0 DUP3 DUP2 MSTORE PUSH1 0x1 PUSH1 0x20 DUP2 SWAP1 MSTORE PUSH1 0x40 DUP3 KECCAK256 SWAP1 DUP2 ADD SLOAD PUSH1 0x1 PUSH1 0x1 PUSH1 0xA0 SHL SUB AND PUSH2 0xD3A JUMPI PUSH1 0x40 MLOAD PUSH3 0x461BCD PUSH1 0xE5 SHL DUP2 MSTORE PUSH1 0x20 PUSH1 0x4 DUP3 ADD MSTORE PUSH1 0x11 PUSH1 0x24 DUP3 ADD MSTORE PUSH17 0x14D95C9D9A58D9481B9BDD08199BDD5B99 PUSH1 0x7A SHL PUSH1 0x44 DUP3 ADD MSTORE PUSH1 0x64 ADD PUSH2 0x725 JUMP JUMPDEST DUP3 DUP2 PUSH1 0x6 ADD SLOAD PUSH2 0xD4A SWAP2 SWAP1 PUSH2 0x2BA0 JUMP JUMPDEST SWAP2 POP POP JUMPDEST SWAP3 SWAP2 POP POP JUMP JUMPDEST PUSH1 0x0 DUP2 DUP2 MSTORE PUSH1 0x1 PUSH1 0x20 MSTORE PUSH1 0x40 DUP2 KECCAK256 PUSH1 0xD DUP2 ADD SLOAD DUP3 SUB PUSH2 0xD76 JUMPI POP PUSH1 0x0 SWAP3 SWAP2 POP POP JUMP JUMPDEST DUP1 PUSH1 0xD ADD SLOAD DUP2 PUSH1 0xC ADD SLOAD PUSH2 0xD8A SWAP2 SWAP1 PUSH2 0x2BB7 JUMP JUMPDEST SWAP4 SWAP3 POP POP POP JUMP JUMPDEST PUSH2 0xD99 PUSH2 0x1D07 JUMP JUMPDEST PUSH1 0x1 PUSH1 0x1 PUSH1 0xA0 SHL SUB DUP2 AND PUSH2 0xDE1 JUMPI PUSH1 0x40 MLOAD PUSH3 0x461BCD PUSH1 0xE5 SHL DUP2 MSTORE PUSH1 0x20 PUSH1 0x4 DUP3 ADD MSTORE PUSH1 0xF PUSH1 0x24 DUP3 ADD MSTORE PUSH15 0x496E76616C69642061646472657373 PUSH1 0x88 SHL PUSH1 0x44 DUP3 ADD MSTORE PUSH1 0x64 ADD PUSH2 0x725 JUMP JUMPDEST PUSH1 0x8 DUP1 SLOAD PUSH1 0x1 PUSH1 0x1 PUSH1 0xA0 SHL SUB NOT AND PUSH1 0x1 PUSH1 0x1 PUSH1 0xA0 SHL SUB DUP4 AND SWAP1 DUP2 OR SWAP1 SWAP2 SSTORE PUSH1 0x40 MLOAD SWAP1 DUP2 MSTORE PUSH32 0xE2605215EBEF56288C86DE4004AC7C45E36FD52846CE4671DFB62DDBD70F59E6 SWAP1 PUSH1 0x20 ADD PUSH1 0x40 MLOAD DUP1 SWAP2 SUB SWAP1 LOG1 POP JUMP JUMPDEST PUSH1 0x60 PUSH1 0x5 DUP4 DUP4 PUSH1 0x40 MLOAD PUSH2 0xE49 SWAP3 SWAP2 SWAP1 PUSH2 0x2A5A JUMP JUMPDEST SWAP1 DUP2 MSTORE PUSH1 0x40 DUP1 MLOAD SWAP2 DUP3 SWAP1 SUB PUSH1 0x20 SWAP1 DUP2 ADD DUP4 KECCAK256 DUP1 SLOAD DUP1 DUP4 MUL DUP6 ADD DUP4 ADD SWAP1 SWAP4 MSTORE DUP3 DUP5 MSTORE SWAP2 SWAP1 DUP4 ADD DUP3 DUP3 DUP1 ISZERO PUSH2 0xE9B JUMPI PUSH1 0x20 MUL DUP3 ADD SWAP2 SWAP1 PUSH1 0x0 MSTORE PUSH1 0x20 PUSH1 0x0 KECCAK256 SWAP1 JUMPDEST DUP2 SLOAD DUP2 MSTORE PUSH1 0x20 ADD SWAP1 PUSH1 0x1 ADD SWAP1 DUP1 DUP4 GT PUSH2 0xE87 JUMPI JUMPDEST POP POP POP POP POP SWAP1 POP SWAP3 SWAP2 POP POP JUMP JUMPDEST PUSH2 0xEB0 PUSH2 0x1D07 JUMP JUMPDEST PUSH2 0xEBA PUSH1 0x0 PUSH2 0x1D34 JUMP JUMPDEST JUMP JUMPDEST PUSH1 0x6 SLOAD PUSH1 0x0 DUP1 DUP1 JUMPDEST PUSH1 0x6 SLOAD DUP2 LT ISZERO PUSH2 0xF21 JUMPI PUSH1 0x1 PUSH1 0x0 PUSH1 0x6 DUP4 DUP2 SLOAD DUP2 LT PUSH2 0xEE5 JUMPI PUSH2 0xEE5 PUSH2 0x29FE JUMP JUMPDEST SWAP1 PUSH1 0x0 MSTORE PUSH1 0x20 PUSH1 0x0 KECCAK256 ADD SLOAD DUP2 MSTORE PUSH1 0x20 ADD SWAP1 DUP2 MSTORE PUSH1 0x20 ADD PUSH1 0x0 KECCAK256 PUSH1 0xA ADD SLOAD DUP4 PUSH2 0xF0D SWAP2 SWAP1 PUSH2 0x2BD9 JUMP JUMPDEST SWAP3 POP DUP1 PUSH2 0xF19 DUP2 PUSH2 0x2A80 JUMP JUMPDEST SWAP2 POP POP PUSH2 0xEC4 JUMP JUMPDEST POP PUSH1 0x6 SLOAD PUSH1 0x0 SWAP1 PUSH1 0x1 PUSH1 0x1 PUSH1 0x40 SHL SUB DUP2 GT ISZERO PUSH2 0xF3F JUMPI PUSH2 0xF3F PUSH2 0x2305 JUMP JUMPDEST PUSH1 0x40 MLOAD SWAP1 DUP1 DUP3 MSTORE DUP1 PUSH1 0x20 MUL PUSH1 0x20 ADD DUP3 ADD PUSH1 0x40 MSTORE DUP1 ISZERO PUSH2 0xF68 JUMPI DUP2 PUSH1 0x20 ADD PUSH1 0x20 DUP3 MUL DUP1 CALLDATASIZE DUP4 CALLDATACOPY ADD SWAP1 POP JUMPDEST POP SWAP1 POP PUSH1 0x0 DUP1 JUMPDEST PUSH1 0x6 SLOAD DUP2 LT ISZERO PUSH2 0x1067 JUMPI PUSH1 0x0 PUSH1 0x1 PUSH1 0x0 PUSH1 0x6 DUP5 DUP2 SLOAD DUP2 LT PUSH2 0xF92 JUMPI PUSH2 0xF92 PUSH2 0x29FE JUMP JUMPDEST PUSH1 0x0 SWAP2 DUP3 MSTORE PUSH1 0x20 DUP1 DUP4 KECCAK256 SWAP1 SWAP2 ADD SLOAD DUP4 MSTORE DUP3 ADD SWAP3 SWAP1 SWAP3 MSTORE PUSH1 0x40 ADD DUP2 KECCAK256 PUSH1 0x1 ADD SLOAD PUSH1 0x1 PUSH1 0x1 PUSH1 0xA0 SHL SUB AND SWAP2 POP DUP1 JUMPDEST DUP5 DUP2 LT ISZERO PUSH2 0x1013 JUMPI DUP3 PUSH1 0x1 PUSH1 0x1 PUSH1 0xA0 SHL SUB AND DUP7 DUP3 DUP2 MLOAD DUP2 LT PUSH2 0xFE2 JUMPI PUSH2 0xFE2 PUSH2 0x29FE JUMP JUMPDEST PUSH1 0x20 MUL PUSH1 0x20 ADD ADD MLOAD PUSH1 0x1 PUSH1 0x1 PUSH1 0xA0 SHL SUB AND SUB PUSH2 0x1001 JUMPI PUSH1 0x1 SWAP2 POP PUSH2 0x1013 JUMP JUMPDEST DUP1 PUSH2 0x100B DUP2 PUSH2 0x2A80 JUMP JUMPDEST SWAP2 POP POP PUSH2 0xFBE JUMP JUMPDEST POP DUP1 PUSH2 0x1052 JUMPI DUP2 DUP6 DUP6 DUP2 MLOAD DUP2 LT PUSH2 0x102C JUMPI PUSH2 0x102C PUSH2 0x29FE JUMP JUMPDEST PUSH1 0x1 PUSH1 0x1 PUSH1 0xA0 SHL SUB SWAP1 SWAP3 AND PUSH1 0x20 SWAP3 DUP4 MUL SWAP2 SWAP1 SWAP2 ADD SWAP1 SWAP2 ADD MSTORE DUP4 PUSH2 0x104E DUP2 PUSH2 0x2A80 JUMP JUMPDEST SWAP5 POP POP JUMPDEST POP POP DUP1 DUP1 PUSH2 0x105F SWAP1 PUSH2 0x2A80 JUMP JUMPDEST SWAP2 POP POP PUSH2 0xF6F JUMP JUMPDEST POP DUP1 SWAP3 POP POP POP SWAP1 SWAP2 SWAP3 JUMP JUMPDEST PUSH1 0x8 SLOAD PUSH1 0x1 PUSH1 0x1 PUSH1 0xA0 SHL SUB AND CALLER EQ DUP1 PUSH2 0x1095 JUMPI POP PUSH1 0x0 SLOAD PUSH1 0x1 PUSH1 0x1 PUSH1 0xA0 SHL SUB AND CALLER EQ JUMPDEST PUSH2 0x10D2 JUMPI PUSH1 0x40 MLOAD PUSH3 0x461BCD PUSH1 0xE5 SHL DUP2 MSTORE PUSH1 0x20 PUSH1 0x4 DUP3 ADD MSTORE PUSH1 0xE PUSH1 0x24 DUP3 ADD MSTORE PUSH14 0x139BDD08185D5D1A1BDC9A5E9959 PUSH1 0x92 SHL PUSH1 0x44 DUP3 ADD MSTORE PUSH1 0x64 ADD PUSH2 0x725 JUMP JUMPDEST PUSH1 0x0 DUP7 DUP2 MSTORE PUSH1 0x1 PUSH1 0x20 MSTORE PUSH1 0x40 DUP2 KECCAK256 PUSH1 0xA DUP2 ADD DUP1 SLOAD SWAP2 SWAP3 DUP8 SWAP3 PUSH2 0x10F5 SWAP1 DUP5 SWAP1 PUSH2 0x2BD9 JUMP JUMPDEST SWAP1 SWAP2 SSTORE POP POP PUSH1 0xB DUP2 ADD DUP1 SLOAD SWAP1 PUSH1 0x0 PUSH2 0x110C DUP4 PUSH2 0x2A80 JUMP JUMPDEST SWAP1 SWAP2 SSTORE POP POP PUSH1 0x1 DUP2 ADD SLOAD PUSH1 0x1 PUSH1 0x1 PUSH1 0xA0 SHL SUB AND PUSH1 0x0 SWAP1 DUP2 MSTORE PUSH1 0x4 PUSH1 0x20 MSTORE PUSH1 0x40 DUP2 KECCAK256 DUP1 SLOAD DUP8 SWAP3 SWAP1 PUSH2 0x113D SWAP1 DUP5 SWAP1 PUSH2 0x2BD9 JUMP JUMPDEST SWAP3 POP POP DUP2 SWAP1 SSTORE POP PUSH1 0x3 PUSH1 0x0 DUP8 PUSH1 0x1 PUSH1 0x1 PUSH1 0xA0 SHL SUB AND PUSH1 0x1 PUSH1 0x1 PUSH1 0xA0 SHL SUB AND DUP2 MSTORE PUSH1 0x20 ADD SWAP1 DUP2 MSTORE PUSH1 0x20 ADD PUSH1 0x0 KECCAK256 PUSH1 0x40 MLOAD DUP1 PUSH1 0xC0 ADD PUSH1 0x40 MSTORE DUP1 DUP10 DUP2 MSTORE PUSH1 0x20 ADD DUP9 PUSH1 0x1 PUSH1 0x1 PUSH1 0xA0 SHL SUB AND DUP2 MSTORE PUSH1 0x20 ADD DUP6 DUP2 MSTORE PUSH1 0x20 ADD DUP5 DUP2 MSTORE PUSH1 0x20 ADD DUP8 DUP2 MSTORE PUSH1 0x20 ADD DUP7 ISZERO ISZERO DUP2 MSTORE POP SWAP1 DUP1 PUSH1 0x1 DUP2 SLOAD ADD DUP1 DUP3 SSTORE DUP1 SWAP2 POP POP PUSH1 0x1 SWAP1 SUB SWAP1 PUSH1 0x0 MSTORE PUSH1 0x20 PUSH1 0x0 KECCAK256 SWAP1 PUSH1 0x6 MUL ADD PUSH1 0x0 SWAP1 SWAP2 SWAP1 SWAP2 SWAP1 SWAP2 POP PUSH1 0x0 DUP3 ADD MLOAD DUP2 PUSH1 0x0 ADD SSTORE PUSH1 0x20 DUP3 ADD MLOAD DUP2 PUSH1 0x1 ADD PUSH1 0x0 PUSH2 0x100 EXP DUP2 SLOAD DUP2 PUSH1 0x1 PUSH1 0x1 PUSH1 0xA0 SHL SUB MUL NOT AND SWAP1 DUP4 PUSH1 0x1 PUSH1 0x1 PUSH1 0xA0 SHL SUB AND MUL OR SWAP1 SSTORE POP PUSH1 0x40 DUP3 ADD MLOAD DUP2 PUSH1 0x2 ADD SSTORE PUSH1 0x60 DUP3 ADD MLOAD DUP2 PUSH1 0x3 ADD SSTORE PUSH1 0x80 DUP3 ADD MLOAD DUP2 PUSH1 0x4 ADD SSTORE PUSH1 0xA0 DUP3 ADD MLOAD DUP2 PUSH1 0x5 ADD PUSH1 0x0 PUSH2 0x100 EXP DUP2 SLOAD DUP2 PUSH1 0xFF MUL NOT AND SWAP1 DUP4 ISZERO ISZERO MUL OR SWAP1 SSTORE POP POP POP DUP6 PUSH1 0x1 PUSH1 0x1 PUSH1 0xA0 SHL SUB AND DUP8 PUSH32 0xCB6423D7102200D403F38CEFC45B39516D189FFCA6D50AF7E14706A1BF7CE4DD DUP8 DUP8 PUSH1 0x40 MLOAD PUSH2 0x1288 SWAP3 SWAP2 SWAP1 SWAP2 DUP3 MSTORE ISZERO ISZERO PUSH1 0x20 DUP3 ADD MSTORE PUSH1 0x40 ADD SWAP1 JUMP JUMPDEST PUSH1 0x40 MLOAD DUP1 SWAP2 SUB SWAP1 LOG3 POP POP POP POP POP POP POP JUMP JUMPDEST PUSH1 0x1 PUSH1 0x1 PUSH1 0xA0 SHL SUB DUP2 AND PUSH1 0x0 SWAP1 DUP2 MSTORE PUSH1 0x2 PUSH1 0x20 SWAP1 DUP2 MSTORE PUSH1 0x40 SWAP2 DUP3 SWAP1 KECCAK256 DUP1 SLOAD DUP4 MLOAD DUP2 DUP5 MUL DUP2 ADD DUP5 ADD SWAP1 SWAP5 MSTORE DUP1 DUP5 MSTORE PUSH1 0x60 SWAP4 SWAP3 DUP4 ADD DUP3 DUP3 DUP1 ISZERO PUSH2 0x12F9 JUMPI PUSH1 0x20 MUL DUP3 ADD SWAP2 SWAP1 PUSH1 0x0 MSTORE PUSH1 0x20 PUSH1 0x0 KECCAK256 SWAP1 JUMPDEST DUP2 SLOAD DUP2 MSTORE PUSH1 0x20 ADD SWAP1 PUSH1 0x1 ADD SWAP1 DUP1 DUP4 GT PUSH2 0x12E5 JUMPI JUMPDEST POP POP POP POP POP SWAP1 POP SWAP2 SWAP1 POP JUMP JUMPDEST PUSH1 0x1 PUSH1 0x1 PUSH1 0xA0 SHL SUB DUP2 AND PUSH1 0x0 SWAP1 DUP2 MSTORE PUSH1 0x3 PUSH1 0x20 SWAP1 DUP2 MSTORE PUSH1 0x40 DUP1 DUP4 KECCAK256 DUP1 SLOAD DUP3 MLOAD DUP2 DUP6 MUL DUP2 ADD DUP6 ADD SWAP1 SWAP4 MSTORE DUP1 DUP4 MSTORE PUSH1 0x60 SWAP5 SWAP3 SWAP4 SWAP2 SWAP3 SWAP1 SWAP2 DUP5 ADD JUMPDEST DUP3 DUP3 LT ISZERO PUSH2 0x13B3 JUMPI PUSH1 0x0 DUP5 DUP2 MSTORE PUSH1 0x20 SWAP1 DUP2 SWAP1 KECCAK256 PUSH1 0x40 DUP1 MLOAD PUSH1 0xC0 DUP2 ADD DUP3 MSTORE PUSH1 0x6 DUP7 MUL SWAP1 SWAP3 ADD DUP1 SLOAD DUP4 MSTORE PUSH1 0x1 DUP1 DUP3 ADD SLOAD PUSH1 0x1 PUSH1 0x1 PUSH1 0xA0 SHL SUB AND DUP5 DUP7 ADD MSTORE PUSH1 0x2 DUP3 ADD SLOAD SWAP3 DUP5 ADD SWAP3 SWAP1 SWAP3 MSTORE PUSH1 0x3 DUP2 ADD SLOAD PUSH1 0x60 DUP5 ADD MSTORE PUSH1 0x4 DUP2 ADD SLOAD PUSH1 0x80 DUP5 ADD MSTORE PUSH1 0x5 ADD SLOAD PUSH1 0xFF AND ISZERO ISZERO PUSH1 0xA0 DUP4 ADD MSTORE SWAP1 DUP4 MSTORE SWAP1 SWAP3 ADD SWAP2 ADD PUSH2 0x133D JUMP JUMPDEST POP POP POP POP SWAP1 POP SWAP2 SWAP1 POP JUMP JUMPDEST PUSH1 0x1 DUP2 PUSH1 0xFF AND LT ISZERO DUP1 ISZERO PUSH2 0x13D6 JUMPI POP PUSH1 0x5 DUP2 PUSH1 0xFF AND GT ISZERO JUMPDEST PUSH2 0x140F JUMPI PUSH1 0x40 MLOAD PUSH3 0x461BCD PUSH1 0xE5 SHL DUP2 MSTORE PUSH1 0x20 PUSH1 0x4 DUP3 ADD MSTORE PUSH1 0xA PUSH1 0x24 DUP3 ADD MSTORE PUSH10 0x526174696E6720312D35 PUSH1 0xB0 SHL PUSH1 0x44 DUP3 ADD MSTORE PUSH1 0x64 ADD PUSH2 0x725 JUMP JUMPDEST PUSH1 0x0 DUP3 DUP2 MSTORE PUSH1 0x1 PUSH1 0x20 DUP2 SWAP1 MSTORE PUSH1 0x40 SWAP1 SWAP2 KECCAK256 SWAP1 DUP2 ADD SLOAD PUSH1 0x1 PUSH1 0x1 PUSH1 0xA0 SHL SUB AND PUSH2 0x146D JUMPI PUSH1 0x40 MLOAD PUSH3 0x461BCD PUSH1 0xE5 SHL DUP2 MSTORE PUSH1 0x20 PUSH1 0x4 DUP3 ADD MSTORE PUSH1 0x11 PUSH1 0x24 DUP3 ADD MSTORE PUSH17 0x14D95C9D9A58D9481B9BDD08199BDD5B99 PUSH1 0x7A SHL PUSH1 0x44 DUP3 ADD MSTORE PUSH1 0x64 ADD PUSH2 0x725 JUMP JUMPDEST CALLER PUSH1 0x0 SWAP1 DUP2 MSTORE PUSH1 0x3 PUSH1 0x20 MSTORE PUSH1 0x40 DUP2 KECCAK256 DUP2 JUMPDEST DUP2 SLOAD DUP2 LT ISZERO PUSH2 0x14CC JUMPI DUP6 DUP3 DUP3 DUP2 SLOAD DUP2 LT PUSH2 0x149A JUMPI PUSH2 0x149A PUSH2 0x29FE JUMP JUMPDEST SWAP1 PUSH1 0x0 MSTORE PUSH1 0x20 PUSH1 0x0 KECCAK256 SWAP1 PUSH1 0x6 MUL ADD PUSH1 0x0 ADD SLOAD SUB PUSH2 0x14BA JUMPI PUSH1 0x1 SWAP3 POP PUSH2 0x14CC JUMP JUMPDEST DUP1 PUSH2 0x14C4 DUP2 PUSH2 0x2A80 JUMP JUMPDEST SWAP2 POP POP PUSH2 0x147E JUMP JUMPDEST POP DUP2 PUSH2 0x151A JUMPI PUSH1 0x40 MLOAD PUSH3 0x461BCD PUSH1 0xE5 SHL DUP2 MSTORE PUSH1 0x20 PUSH1 0x4 DUP3 ADD MSTORE PUSH1 0x1E PUSH1 0x24 DUP3 ADD MSTORE PUSH32 0x4D757374207573652073657276696365206265666F726520726174696E670000 PUSH1 0x44 DUP3 ADD MSTORE PUSH1 0x64 ADD PUSH2 0x725 JUMP JUMPDEST PUSH2 0x1525 DUP5 PUSH1 0x14 PUSH2 0x2BEC JUMP JUMPDEST PUSH1 0xFF AND DUP4 PUSH1 0xC ADD PUSH1 0x0 DUP3 DUP3 SLOAD PUSH2 0x153B SWAP2 SWAP1 PUSH2 0x2BD9 JUMP JUMPDEST SWAP1 SWAP2 SSTORE POP POP PUSH1 0xD DUP4 ADD DUP1 SLOAD SWAP1 PUSH1 0x0 PUSH2 0x1552 DUP4 PUSH2 0x2A80 JUMP JUMPDEST SWAP1 SWAP2 SSTORE POP POP PUSH1 0x40 MLOAD PUSH1 0xFF DUP6 AND DUP2 MSTORE CALLER SWAP1 DUP7 SWAP1 PUSH32 0x1137CA995897283D2FBF2EBC25887370BF949A29C225AF34F858E7EC1C69166D SWAP1 PUSH1 0x20 ADD PUSH1 0x40 MLOAD DUP1 SWAP2 SUB SWAP1 LOG3 POP POP POP POP POP JUMP JUMPDEST PUSH1 0x3 PUSH1 0x20 MSTORE DUP2 PUSH1 0x0 MSTORE PUSH1 0x40 PUSH1 0x0 KECCAK256 DUP2 DUP2 SLOAD DUP2 LT PUSH2 0x15B4 JUMPI PUSH1 0x0 DUP1 REVERT JUMPDEST PUSH1 0x0 SWAP2 DUP3 MSTORE PUSH1 0x20 SWAP1 SWAP2 KECCAK256 PUSH1 0x6 SWAP1 SWAP2 MUL ADD DUP1 SLOAD PUSH1 0x1 DUP3 ADD SLOAD PUSH1 0x2 DUP4 ADD SLOAD PUSH1 0x3 DUP5 ADD SLOAD PUSH1 0x4 DUP6 ADD SLOAD PUSH1 0x5 SWAP1 SWAP6 ADD SLOAD SWAP4 SWAP7 POP PUSH1 0x1 PUSH1 0x1 PUSH1 0xA0 SHL SUB SWAP1 SWAP3 AND SWAP5 POP SWAP3 SWAP1 SWAP2 PUSH1 0xFF AND DUP7 JUMP JUMPDEST PUSH1 0x60 PUSH1 0x0 PUSH2 0x1607 DUP4 DUP6 PUSH2 0x2BD9 JUMP JUMPDEST PUSH1 0x6 SLOAD SWAP1 SWAP2 POP DUP2 GT ISZERO PUSH2 0x1619 JUMPI POP PUSH1 0x6 SLOAD JUMPDEST PUSH1 0x0 PUSH2 0x1625 DUP6 DUP4 PUSH2 0x2C0F JUMP JUMPDEST PUSH1 0x1 PUSH1 0x1 PUSH1 0x40 SHL SUB DUP2 GT ISZERO PUSH2 0x163C JUMPI PUSH2 0x163C PUSH2 0x2305 JUMP JUMPDEST PUSH1 0x40 MLOAD SWAP1 DUP1 DUP3 MSTORE DUP1 PUSH1 0x20 MUL PUSH1 0x20 ADD DUP3 ADD PUSH1 0x40 MSTORE DUP1 ISZERO PUSH2 0x1665 JUMPI DUP2 PUSH1 0x20 ADD PUSH1 0x20 DUP3 MUL DUP1 CALLDATASIZE DUP4 CALLDATACOPY ADD SWAP1 POP JUMPDEST POP SWAP1 POP DUP5 JUMPDEST DUP3 DUP2 LT ISZERO PUSH2 0x16CA JUMPI PUSH1 0x6 DUP2 DUP2 SLOAD DUP2 LT PUSH2 0x1685 JUMPI PUSH2 0x1685 PUSH2 0x29FE JUMP JUMPDEST SWAP1 PUSH1 0x0 MSTORE PUSH1 0x20 PUSH1 0x0 KECCAK256 ADD SLOAD DUP3 DUP8 DUP4 PUSH2 0x169D SWAP2 SWAP1 PUSH2 0x2C0F JUMP JUMPDEST DUP2 MLOAD DUP2 LT PUSH2 0x16AD JUMPI PUSH2 0x16AD PUSH2 0x29FE JUMP JUMPDEST PUSH1 0x20 SWAP1 DUP2 MUL SWAP2 SWAP1 SWAP2 ADD ADD MSTORE DUP1 PUSH2 0x16C2 DUP2 PUSH2 0x2A80 JUMP JUMPDEST SWAP2 POP POP PUSH2 0x166A JUMP JUMPDEST POP SWAP5 SWAP4 POP POP POP POP JUMP JUMPDEST PUSH1 0x6 SLOAD PUSH1 0x60 SWAP1 PUSH1 0x0 SWAP1 PUSH1 0x1 PUSH1 0x1 PUSH1 0x40 SHL SUB DUP2 GT ISZERO PUSH2 0x16F3 JUMPI PUSH2 0x16F3 PUSH2 0x2305 JUMP JUMPDEST PUSH1 0x40 MLOAD SWAP1 DUP1 DUP3 MSTORE DUP1 PUSH1 0x20 MUL PUSH1 0x20 ADD DUP3 ADD PUSH1 0x40 MSTORE DUP1 ISZERO PUSH2 0x171C JUMPI DUP2 PUSH1 0x20 ADD PUSH1 0x20 DUP3 MUL DUP1 CALLDATASIZE DUP4 CALLDATACOPY ADD SWAP1 POP JUMPDEST POP SWAP1 POP PUSH1 0x0 DUP1 DUP6 DUP6 DUP1 DUP1 PUSH1 0x1F ADD PUSH1 0x20 DUP1 SWAP2 DIV MUL PUSH1 0x20 ADD PUSH1 0x40 MLOAD SWAP1 DUP2 ADD PUSH1 0x40 MSTORE DUP1 SWAP4 SWAP3 SWAP2 SWAP1 DUP2 DUP2 MSTORE PUSH1 0x20 ADD DUP4 DUP4 DUP1 DUP3 DUP5 CALLDATACOPY PUSH1 0x0 SWAP3 ADD DUP3 SWAP1 MSTORE POP SWAP4 SWAP5 POP POP POP POP JUMPDEST PUSH1 0x6 SLOAD DUP2 LT ISZERO PUSH2 0x1897 JUMPI PUSH1 0x0 PUSH1 0x1 PUSH1 0x0 PUSH1 0x6 DUP5 DUP2 SLOAD DUP2 LT PUSH2 0x177E JUMPI PUSH2 0x177E PUSH2 0x29FE JUMP JUMPDEST SWAP1 PUSH1 0x0 MSTORE PUSH1 0x20 PUSH1 0x0 KECCAK256 ADD SLOAD DUP2 MSTORE PUSH1 0x20 ADD SWAP1 DUP2 MSTORE PUSH1 0x20 ADD PUSH1 0x0 KECCAK256 SWAP1 POP PUSH1 0x0 DUP2 PUSH1 0x2 ADD DUP1 SLOAD PUSH2 0x17AA SWAP1 PUSH2 0x27FE JUMP JUMPDEST DUP1 PUSH1 0x1F ADD PUSH1 0x20 DUP1 SWAP2 DIV MUL PUSH1 0x20 ADD PUSH1 0x40 MLOAD SWAP1 DUP2 ADD PUSH1 0x40 MSTORE DUP1 SWAP3 SWAP2 SWAP1 DUP2 DUP2 MSTORE PUSH1 0x20 ADD DUP3 DUP1 SLOAD PUSH2 0x17D6 SWAP1 PUSH2 0x27FE JUMP JUMPDEST DUP1 ISZERO PUSH2 0x1823 JUMPI DUP1 PUSH1 0x1F LT PUSH2 0x17F8 JUMPI PUSH2 0x100 DUP1 DUP4 SLOAD DIV MUL DUP4 MSTORE SWAP2 PUSH1 0x20 ADD SWAP2 PUSH2 0x1823 JUMP JUMPDEST DUP3 ADD SWAP2 SWAP1 PUSH1 0x0 MSTORE PUSH1 0x20 PUSH1 0x0 KECCAK256 SWAP1 JUMPDEST DUP2 SLOAD DUP2 MSTORE SWAP1 PUSH1 0x1 ADD SWAP1 PUSH1 0x20 ADD DUP1 DUP4 GT PUSH2 0x1806 JUMPI DUP3 SWAP1 SUB PUSH1 0x1F AND DUP3 ADD SWAP2 JUMPDEST POP POP POP POP POP SWAP1 POP PUSH2 0x1834 DUP2 DUP6 PUSH2 0x1D84 JUMP JUMPDEST ISZERO PUSH2 0x1882 JUMPI PUSH1 0x6 DUP4 DUP2 SLOAD DUP2 LT PUSH2 0x184C JUMPI PUSH2 0x184C PUSH2 0x29FE JUMP JUMPDEST SWAP1 PUSH1 0x0 MSTORE PUSH1 0x20 PUSH1 0x0 KECCAK256 ADD SLOAD DUP7 DUP7 DUP2 MLOAD DUP2 LT PUSH2 0x1869 JUMPI PUSH2 0x1869 PUSH2 0x29FE JUMP JUMPDEST PUSH1 0x20 SWAP1 DUP2 MUL SWAP2 SWAP1 SWAP2 ADD ADD MSTORE DUP5 PUSH2 0x187E DUP2 PUSH2 0x2A80 JUMP JUMPDEST SWAP6 POP POP JUMPDEST POP POP DUP1 DUP1 PUSH2 0x188F SWAP1 PUSH2 0x2A80 JUMP JUMPDEST SWAP2 POP POP PUSH2 0x175B JUMP JUMPDEST POP PUSH1 0x0 DUP3 PUSH1 0x1 PUSH1 0x1 PUSH1 0x40 SHL SUB DUP2 GT ISZERO PUSH2 0x18B2 JUMPI PUSH2 0x18B2 PUSH2 0x2305 JUMP JUMPDEST PUSH1 0x40 MLOAD SWAP1 DUP1 DUP3 MSTORE DUP1 PUSH1 0x20 MUL PUSH1 0x20 ADD DUP3 ADD PUSH1 0x40 MSTORE DUP1 ISZERO PUSH2 0x18DB JUMPI DUP2 PUSH1 0x20 ADD PUSH1 0x20 DUP3 MUL DUP1 CALLDATASIZE DUP4 CALLDATACOPY ADD SWAP1 POP JUMPDEST POP SWAP1 POP PUSH1 0x0 JUMPDEST DUP4 DUP2 LT ISZERO PUSH2 0x1932 JUMPI DUP5 DUP2 DUP2 MLOAD DUP2 LT PUSH2 0x18FB JUMPI PUSH2 0x18FB PUSH2 0x29FE JUMP JUMPDEST PUSH1 0x20 MUL PUSH1 0x20 ADD ADD MLOAD DUP3 DUP3 DUP2 MLOAD DUP2 LT PUSH2 0x1915 JUMPI PUSH2 0x1915 PUSH2 0x29FE JUMP JUMPDEST PUSH1 0x20 SWAP1 DUP2 MUL SWAP2 SWAP1 SWAP2 ADD ADD MSTORE DUP1 PUSH2 0x192A DUP2 PUSH2 0x2A80 JUMP JUMPDEST SWAP2 POP POP PUSH2 0x18E1 JUMP JUMPDEST POP SWAP7 SWAP6 POP POP POP POP POP POP JUMP JUMPDEST PUSH2 0x1945 PUSH2 0x1EBE JUMP JUMPDEST PUSH1 0x0 DUP3 DUP2 MSTORE PUSH1 0x1 PUSH1 0x20 DUP2 DUP2 MSTORE PUSH1 0x40 SWAP3 DUP4 SWAP1 KECCAK256 DUP4 MLOAD PUSH2 0x1E0 DUP2 ADD DUP6 MSTORE DUP2 SLOAD DUP2 MSTORE SWAP3 DUP2 ADD SLOAD PUSH1 0x1 PUSH1 0x1 PUSH1 0xA0 SHL SUB AND SWAP2 DUP4 ADD SWAP2 SWAP1 SWAP2 MSTORE PUSH1 0x2 DUP2 ADD DUP1 SLOAD SWAP3 SWAP4 SWAP2 SWAP3 SWAP2 DUP5 ADD SWAP2 PUSH2 0x198F SWAP1 PUSH2 0x27FE JUMP JUMPDEST DUP1 PUSH1 0x1F ADD PUSH1 0x20 DUP1 SWAP2 DIV MUL PUSH1 0x20 ADD PUSH1 0x40 MLOAD SWAP1 DUP2 ADD PUSH1 0x40 MSTORE DUP1 SWAP3 SWAP2 SWAP1 DUP2 DUP2 MSTORE PUSH1 0x20 ADD DUP3 DUP1 SLOAD PUSH2 0x19BB SWAP1 PUSH2 0x27FE JUMP JUMPDEST DUP1 ISZERO PUSH2 0x1A08 JUMPI DUP1 PUSH1 0x1F LT PUSH2 0x19DD JUMPI PUSH2 0x100 DUP1 DUP4 SLOAD DIV MUL DUP4 MSTORE SWAP2 PUSH1 0x20 ADD SWAP2 PUSH2 0x1A08 JUMP JUMPDEST DUP3 ADD SWAP2 SWAP1 PUSH1 0x0 MSTORE PUSH1 0x20 PUSH1 0x0 KECCAK256 SWAP1 JUMPDEST DUP2 SLOAD DUP2 MSTORE SWAP1 PUSH1 0x1 ADD SWAP1 PUSH1 0x20 ADD DUP1 DUP4 GT PUSH2 0x19EB JUMPI DUP3 SWAP1 SUB PUSH1 0x1F AND DUP3 ADD SWAP2 JUMPDEST POP POP POP POP POP DUP2 MSTORE PUSH1 0x20 ADD PUSH1 0x3 DUP3 ADD DUP1 SLOAD PUSH2 0x1A21 SWAP1 PUSH2 0x27FE JUMP JUMPDEST DUP1 PUSH1 0x1F ADD PUSH1 0x20 DUP1 SWAP2 DIV MUL PUSH1 0x20 ADD PUSH1 0x40 MLOAD SWAP1 DUP2 ADD PUSH1 0x40 MSTORE DUP1 SWAP3 SWAP2 SWAP1 DUP2 DUP2 MSTORE PUSH1 0x20 ADD DUP3 DUP1 SLOAD PUSH2 0x1A4D SWAP1 PUSH2 0x27FE JUMP JUMPDEST DUP1 ISZERO PUSH2 0x1A9A JUMPI DUP1 PUSH1 0x1F LT PUSH2 0x1A6F JUMPI PUSH2 0x100 DUP1 DUP4 SLOAD DIV MUL DUP4 MSTORE SWAP2 PUSH1 0x20 ADD SWAP2 PUSH2 0x1A9A JUMP JUMPDEST DUP3 ADD SWAP2 SWAP1 PUSH1 0x0 MSTORE PUSH1 0x20 PUSH1 0x0 KECCAK256 SWAP1 JUMPDEST DUP2 SLOAD DUP2 MSTORE SWAP1 PUSH1 0x1 ADD SWAP1 PUSH1 0x20 ADD DUP1 DUP4 GT PUSH2 0x1A7D JUMPI DUP3 SWAP1 SUB PUSH1 0x1F AND DUP3 ADD SWAP2 JUMPDEST POP POP POP POP POP DUP2 MSTORE PUSH1 0x20 ADD PUSH1 0x4 DUP3 ADD DUP1 SLOAD PUSH2 0x1AB3 SWAP1 PUSH2 0x27FE JUMP JUMPDEST DUP1 PUSH1 0x1F ADD PUSH1 0x20 DUP1 SWAP2 DIV MUL PUSH1 0x20 ADD PUSH1 0x40 MLOAD SWAP1 DUP2 ADD PUSH1 0x40 MSTORE DUP1 SWAP3 SWAP2 SWAP1 DUP2 DUP2 MSTORE PUSH1 0x20 ADD DUP3 DUP1 SLOAD PUSH2 0x1ADF SWAP1 PUSH2 0x27FE JUMP JUMPDEST DUP1 ISZERO PUSH2 0x1B2C JUMPI DUP1 PUSH1 0x1F LT PUSH2 0x1B01 JUMPI PUSH2 0x100 DUP1 DUP4 SLOAD DIV MUL DUP4 MSTORE SWAP2 PUSH1 0x20 ADD SWAP2 PUSH2 0x1B2C JUMP JUMPDEST DUP3 ADD SWAP2 SWAP1 PUSH1 0x0 MSTORE PUSH1 0x20 PUSH1 0x0 KECCAK256 SWAP1 JUMPDEST DUP2 SLOAD DUP2 MSTORE SWAP1 PUSH1 0x1 ADD SWAP1 PUSH1 0x20 ADD DUP1 DUP4 GT PUSH2 0x1B0F JUMPI DUP3 SWAP1 SUB PUSH1 0x1F AND DUP3 ADD SWAP2 JUMPDEST POP POP POP SWAP2 DUP4 MSTORE POP POP PUSH1 0x5 DUP3 ADD SLOAD PUSH1 0x20 SWAP1 SWAP2 ADD SWAP1 PUSH1 0xFF AND PUSH1 0x4 DUP2 GT ISZERO PUSH2 0x1B53 JUMPI PUSH2 0x1B53 PUSH2 0x205F JUMP JUMPDEST PUSH1 0x4 DUP2 GT ISZERO PUSH2 0x1B64 JUMPI PUSH2 0x1B64 PUSH2 0x205F JUMP JUMPDEST DUP2 MSTORE PUSH1 0x20 ADD PUSH1 0x6 DUP3 ADD SLOAD DUP2 MSTORE PUSH1 0x20 ADD PUSH1 0x7 DUP3 ADD SLOAD DUP2 MSTORE PUSH1 0x20 ADD PUSH1 0x8 DUP3 ADD SLOAD DUP2 MSTORE PUSH1 0x20 ADD PUSH1 0x9 DUP3 ADD PUSH1 0x0 SWAP1 SLOAD SWAP1 PUSH2 0x100 EXP SWAP1 DIV PUSH1 0xFF AND ISZERO ISZERO ISZERO ISZERO DUP2 MSTORE PUSH1 0x20 ADD PUSH1 0xA DUP3 ADD SLOAD DUP2 MSTORE PUSH1 0x20 ADD PUSH1 0xB DUP3 ADD SLOAD DUP2 MSTORE PUSH1 0x20 ADD PUSH1 0xC DUP3 ADD SLOAD DUP2 MSTORE PUSH1 0x20 ADD PUSH1 0xD DUP3 ADD SLOAD DUP2 MSTORE PUSH1 0x20 ADD PUSH1 0xE DUP3 ADD DUP1 SLOAD DUP1 PUSH1 0x20 MUL PUSH1 0x20 ADD PUSH1 0x40 MLOAD SWAP1 DUP2 ADD PUSH1 0x40 MSTORE DUP1 SWAP3 SWAP2 SWAP1 DUP2 DUP2 MSTORE PUSH1 0x20 ADD PUSH1 0x0 SWAP1 JUMPDEST DUP3 DUP3 LT ISZERO PUSH2 0x1C9A JUMPI DUP4 DUP3 SWAP1 PUSH1 0x0 MSTORE PUSH1 0x20 PUSH1 0x0 KECCAK256 ADD DUP1 SLOAD PUSH2 0x1C0D SWAP1 PUSH2 0x27FE JUMP JUMPDEST DUP1 PUSH1 0x1F ADD PUSH1 0x20 DUP1 SWAP2 DIV MUL PUSH1 0x20 ADD PUSH1 0x40 MLOAD SWAP1 DUP2 ADD PUSH1 0x40 MSTORE DUP1 SWAP3 SWAP2 SWAP1 DUP2 DUP2 MSTORE PUSH1 0x20 ADD DUP3 DUP1 SLOAD PUSH2 0x1C39 SWAP1 PUSH2 0x27FE JUMP JUMPDEST DUP1 ISZERO PUSH2 0x1C86 JUMPI DUP1 PUSH1 0x1F LT PUSH2 0x1C5B JUMPI PUSH2 0x100 DUP1 DUP4 SLOAD DIV MUL DUP4 MSTORE SWAP2 PUSH1 0x20 ADD SWAP2 PUSH2 0x1C86 JUMP JUMPDEST DUP3 ADD SWAP2 SWAP1 PUSH1 0x0 MSTORE PUSH1 0x20 PUSH1 0x0 KECCAK256 SWAP1 JUMPDEST DUP2 SLOAD DUP2 MSTORE SWAP1 PUSH1 0x1 ADD SWAP1 PUSH1 0x20 ADD DUP1 DUP4 GT PUSH2 0x1C69 JUMPI DUP3 SWAP1 SUB PUSH1 0x1F AND DUP3 ADD SWAP2 JUMPDEST POP POP POP POP POP DUP2 MSTORE PUSH1 0x20 ADD SWAP1 PUSH1 0x1 ADD SWAP1 PUSH2 0x1BEE JUMP JUMPDEST POP POP POP SWAP2 MSTORE POP SWAP1 SWAP4 SWAP3 POP POP POP JUMP JUMPDEST PUSH1 0x6 DUP2 DUP2 SLOAD DUP2 LT PUSH2 0x1CB8 JUMPI PUSH1 0x0 DUP1 REVERT JUMPDEST PUSH1 0x0 SWAP2 DUP3 MSTORE PUSH1 0x20 SWAP1 SWAP2 KECCAK256 ADD SLOAD SWAP1 POP DUP2 JUMP JUMPDEST PUSH2 0x1CD1 PUSH2 0x1D07 JUMP JUMPDEST PUSH1 0x1 PUSH1 0x1 PUSH1 0xA0 SHL SUB DUP2 AND PUSH2 0x1CFB JUMPI PUSH1 0x40 MLOAD PUSH4 0x1E4FBDF7 PUSH1 0xE0 SHL DUP2 MSTORE PUSH1 0x0 PUSH1 0x4 DUP3 ADD MSTORE PUSH1 0x24 ADD PUSH2 0x725 JUMP JUMPDEST PUSH2 0x1D04 DUP2 PUSH2 0x1D34 JUMP JUMPDEST POP JUMP JUMPDEST PUSH1 0x0 SLOAD PUSH1 0x1 PUSH1 0x1 PUSH1 0xA0 SHL SUB AND CALLER EQ PUSH2 0xEBA JUMPI PUSH1 0x40 MLOAD PUSH4 0x118CDAA7 PUSH1 0xE0 SHL DUP2 MSTORE CALLER PUSH1 0x4 DUP3 ADD MSTORE PUSH1 0x24 ADD PUSH2 0x725 JUMP JUMPDEST PUSH1 0x0 DUP1 SLOAD PUSH1 0x1 PUSH1 0x1 PUSH1 0xA0 SHL SUB DUP4 DUP2 AND PUSH1 0x1 PUSH1 0x1 PUSH1 0xA0 SHL SUB NOT DUP4 AND DUP2 OR DUP5 SSTORE PUSH1 0x40 MLOAD SWAP2 SWAP1 SWAP3 AND SWAP3 DUP4 SWAP2 PUSH32 0x8BE0079C531659141344CD1FD0A4F28419497F9722A3DAAFE3B4186F6B6457E0 SWAP2 SWAP1 LOG3 POP POP JUMP JUMPDEST PUSH1 0x0 DUP2 MLOAD PUSH1 0x0 SUB PUSH2 0x1D97 JUMPI POP PUSH1 0x1 PUSH2 0xD4E JUMP JUMPDEST DUP2 MLOAD DUP4 MLOAD LT ISZERO PUSH2 0x1DA9 JUMPI POP PUSH1 0x0 PUSH2 0xD4E JUMP JUMPDEST PUSH1 0x0 JUMPDEST DUP3 MLOAD DUP5 MLOAD PUSH2 0x1DBA SWAP2 SWAP1 PUSH2 0x2C0F JUMP JUMPDEST DUP2 GT PUSH2 0x1E5E JUMPI PUSH1 0x1 PUSH1 0x0 JUMPDEST DUP5 MLOAD DUP2 LT ISZERO PUSH2 0x1E39 JUMPI DUP5 DUP2 DUP2 MLOAD DUP2 LT PUSH2 0x1DE0 JUMPI PUSH2 0x1DE0 PUSH2 0x29FE JUMP JUMPDEST ADD PUSH1 0x20 ADD MLOAD PUSH1 0x1 PUSH1 0x1 PUSH1 0xF8 SHL SUB NOT AND DUP7 PUSH2 0x1DFA DUP4 DUP7 PUSH2 0x2BD9 JUMP JUMPDEST DUP2 MLOAD DUP2 LT PUSH2 0x1E0A JUMPI PUSH2 0x1E0A PUSH2 0x29FE JUMP JUMPDEST ADD PUSH1 0x20 ADD MLOAD PUSH1 0x1 PUSH1 0x1 PUSH1 0xF8 SHL SUB NOT AND EQ PUSH2 0x1E27 JUMPI PUSH1 0x0 SWAP2 POP PUSH2 0x1E39 JUMP JUMPDEST DUP1 PUSH2 0x1E31 DUP2 PUSH2 0x2A80 JUMP JUMPDEST SWAP2 POP POP PUSH2 0x1DC5 JUMP JUMPDEST POP DUP1 ISZERO PUSH2 0x1E4B JUMPI PUSH1 0x1 SWAP3 POP POP POP PUSH2 0xD4E JUMP JUMPDEST POP DUP1 PUSH2 0x1E56 DUP2 PUSH2 0x2A80 JUMP JUMPDEST SWAP2 POP POP PUSH2 0x1DAC JUMP JUMPDEST POP PUSH1 0x0 SWAP4 SWAP3 POP POP POP JUMP JUMPDEST DUP3 DUP1 SLOAD DUP3 DUP3 SSTORE SWAP1 PUSH1 0x0 MSTORE PUSH1 0x20 PUSH1 0x0 KECCAK256 SWAP1 DUP2 ADD SWAP3 DUP3 ISZERO PUSH2 0x1EAE JUMPI SWAP2 PUSH1 0x20 MUL DUP3 ADD JUMPDEST DUP3 DUP2 GT ISZERO PUSH2 0x1EAE JUMPI DUP3 MLOAD DUP3 SWAP1 PUSH2 0x1E9E SWAP1 DUP3 PUSH2 0x293F JUMP JUMPDEST POP SWAP2 PUSH1 0x20 ADD SWAP2 SWAP1 PUSH1 0x1 ADD SWAP1 PUSH2 0x1E88 JUMP JUMPDEST POP PUSH2 0x1EBA SWAP3 SWAP2 POP PUSH2 0x1F53 JUMP JUMPDEST POP SWAP1 JUMP JUMPDEST PUSH1 0x40 MLOAD DUP1 PUSH2 0x1E0 ADD PUSH1 0x40 MSTORE DUP1 PUSH1 0x0 DUP1 NOT AND DUP2 MSTORE PUSH1 0x20 ADD PUSH1 0x0 PUSH1 0x1 PUSH1 0x1 PUSH1 0xA0 SHL SUB AND DUP2 MSTORE PUSH1 0x20 ADD PUSH1 0x60 DUP2 MSTORE PUSH1 0x20 ADD PUSH1 0x60 DUP2 MSTORE PUSH1 0x20 ADD PUSH1 0x60 DUP2 MSTORE PUSH1 0x20 ADD PUSH1 0x0 PUSH1 0x4 DUP2 GT ISZERO PUSH2 0x1F0C JUMPI PUSH2 0x1F0C PUSH2 0x205F JUMP JUMPDEST DUP2 MSTORE PUSH1 0x20 ADD PUSH1 0x0 DUP2 MSTORE PUSH1 0x20 ADD PUSH1 0x0 DUP2 MSTORE PUSH1 0x20 ADD PUSH1 0x0 DUP2 MSTORE PUSH1 0x20 ADD PUSH1 0x0 ISZERO ISZERO DUP2 MSTORE PUSH1 0x20 ADD PUSH1 0x0 DUP2 MSTORE PUSH1 0x20 ADD PUSH1 0x0 DUP2 MSTORE PUSH1 0x20 ADD PUSH1 0x0 DUP2 MSTORE PUSH1 0x20 ADD PUSH1 0x0 DUP2 MSTORE PUSH1 0x20 ADD PUSH1 0x60 DUP2 MSTORE POP SWAP1 JUMP JUMPDEST DUP1 DUP3 GT ISZERO PUSH2 0x1EBA JUMPI PUSH1 0x0 PUSH2 0x1F67 DUP3 DUP3 PUSH2 0x1F70 JUMP JUMPDEST POP PUSH1 0x1 ADD PUSH2 0x1F53 JUMP JUMPDEST POP DUP1 SLOAD PUSH2 0x1F7C SWAP1 PUSH2 0x27FE JUMP JUMPDEST PUSH1 0x0 DUP3 SSTORE DUP1 PUSH1 0x1F LT PUSH2 0x1F8C JUMPI POP POP JUMP JUMPDEST PUSH1 0x1F ADD PUSH1 0x20 SWAP1 DIV SWAP1 PUSH1 0x0 MSTORE PUSH1 0x20 PUSH1 0x0 KECCAK256 SWAP1 DUP2 ADD SWAP1 PUSH2 0x1D04 SWAP2 SWAP1 JUMPDEST DUP1 DUP3 GT ISZERO PUSH2 0x1EBA JUMPI PUSH1 0x0 DUP2 SSTORE PUSH1 0x1 ADD PUSH2 0x1FA6 JUMP JUMPDEST DUP1 CALLDATALOAD PUSH1 0x1 PUSH1 0x1 PUSH1 0xA0 SHL SUB DUP2 AND DUP2 EQ PUSH2 0x1FD1 JUMPI PUSH1 0x0 DUP1 REVERT JUMPDEST SWAP2 SWAP1 POP JUMP JUMPDEST PUSH1 0x0 DUP1 PUSH1 0x40 DUP4 DUP6 SUB SLT ISZERO PUSH2 0x1FE9 JUMPI PUSH1 0x0 DUP1 REVERT JUMPDEST PUSH2 0x1FF2 DUP4 PUSH2 0x1FBA JUMP JUMPDEST SWAP5 PUSH1 0x20 SWAP4 SWAP1 SWAP4 ADD CALLDATALOAD SWAP4 POP POP POP JUMP JUMPDEST PUSH1 0x0 PUSH1 0x20 DUP3 DUP5 SUB SLT ISZERO PUSH2 0x2012 JUMPI PUSH1 0x0 DUP1 REVERT JUMPDEST POP CALLDATALOAD SWAP2 SWAP1 POP JUMP JUMPDEST PUSH1 0x0 DUP2 MLOAD DUP1 DUP5 MSTORE PUSH1 0x0 JUMPDEST DUP2 DUP2 LT ISZERO PUSH2 0x203F JUMPI PUSH1 0x20 DUP2 DUP6 ADD DUP2 ADD MLOAD DUP7 DUP4 ADD DUP3 ADD MSTORE ADD PUSH2 0x2023 JUMP JUMPDEST POP PUSH1 0x0 PUSH1 0x20 DUP3 DUP7 ADD ADD MSTORE PUSH1 0x20 PUSH1 0x1F NOT PUSH1 0x1F DUP4 ADD AND DUP6 ADD ADD SWAP2 POP POP SWAP3 SWAP2 POP POP JUMP JUMPDEST PUSH4 0x4E487B71 PUSH1 0xE0 SHL PUSH1 0x0 MSTORE PUSH1 0x21 PUSH1 0x4 MSTORE PUSH1 0x24 PUSH1 0x0 REVERT JUMPDEST PUSH1 0x5 DUP2 LT PUSH2 0x2093 JUMPI PUSH4 0x4E487B71 PUSH1 0xE0 SHL PUSH1 0x0 MSTORE PUSH1 0x21 PUSH1 0x4 MSTORE PUSH1 0x24 PUSH1 0x0 REVERT JUMPDEST SWAP1 MSTORE JUMP JUMPDEST DUP15 DUP2 MSTORE PUSH1 0x1 PUSH1 0x1 PUSH1 0xA0 SHL SUB DUP15 AND PUSH1 0x20 DUP3 ADD MSTORE PUSH2 0x1C0 PUSH1 0x40 DUP3 ADD MSTORE PUSH1 0x0 PUSH2 0x20C1 PUSH2 0x1C0 DUP4 ADD DUP16 PUSH2 0x2019 JUMP JUMPDEST DUP3 DUP2 SUB PUSH1 0x60 DUP5 ADD MSTORE PUSH2 0x20D3 DUP2 DUP16 PUSH2 0x2019 JUMP JUMPDEST SWAP1 POP DUP3 DUP2 SUB PUSH1 0x80 DUP5 ADD MSTORE PUSH2 0x20E7 DUP2 DUP15 PUSH2 0x2019 JUMP JUMPDEST SWAP2 POP POP PUSH2 0x20F7 PUSH1 0xA0 DUP4 ADD DUP13 PUSH2 0x2075 JUMP JUMPDEST DUP10 PUSH1 0xC0 DUP4 ADD MSTORE DUP9 PUSH1 0xE0 DUP4 ADD MSTORE DUP8 PUSH2 0x100 DUP4 ADD MSTORE PUSH2 0x2119 PUSH2 0x120 DUP4 ADD DUP9 ISZERO ISZERO SWAP1 MSTORE JUMP JUMPDEST DUP6 PUSH2 0x140 DUP4 ADD MSTORE DUP5 PUSH2 0x160 DUP4 ADD MSTORE DUP4 PUSH2 0x180 DUP4 ADD MSTORE DUP3 PUSH2 0x1A0 DUP4 ADD MSTORE SWAP16 SWAP15 POP POP POP POP POP POP POP POP POP POP POP POP POP POP POP JUMP JUMPDEST PUSH1 0x0 DUP1 DUP4 PUSH1 0x1F DUP5 ADD SLT PUSH2 0x215A JUMPI PUSH1 0x0 DUP1 REVERT JUMPDEST POP DUP2 CALLDATALOAD PUSH1 0x1 PUSH1 0x1 PUSH1 0x40 SHL SUB DUP2 GT ISZERO PUSH2 0x2171 JUMPI PUSH1 0x0 DUP1 REVERT JUMPDEST PUSH1 0x20 DUP4 ADD SWAP2 POP DUP4 PUSH1 0x20 DUP3 DUP6 ADD ADD GT ISZERO PUSH2 0x2189 JUMPI PUSH1 0x0 DUP1 REVERT JUMPDEST SWAP3 POP SWAP3 SWAP1 POP JUMP JUMPDEST DUP1 CALLDATALOAD PUSH1 0x5 DUP2 LT PUSH2 0x1FD1 JUMPI PUSH1 0x0 DUP1 REVERT JUMPDEST PUSH1 0x0 DUP1 DUP4 PUSH1 0x1F DUP5 ADD SLT PUSH2 0x21B1 JUMPI PUSH1 0x0 DUP1 REVERT JUMPDEST POP DUP2 CALLDATALOAD PUSH1 0x1 PUSH1 0x1 PUSH1 0x40 SHL SUB DUP2 GT ISZERO PUSH2 0x21C8 JUMPI PUSH1 0x0 DUP1 REVERT JUMPDEST PUSH1 0x20 DUP4 ADD SWAP2 POP DUP4 PUSH1 0x20 DUP3 PUSH1 0x5 SHL DUP6 ADD ADD GT ISZERO PUSH2 0x2189 JUMPI PUSH1 0x0 DUP1 REVERT JUMPDEST PUSH1 0x0 DUP1 PUSH1 0x0 DUP1 PUSH1 0x0 DUP1 PUSH1 0x0 DUP1 PUSH1 0x0 DUP1 PUSH1 0x0 DUP1 PUSH2 0x100 DUP14 DUP16 SUB SLT ISZERO PUSH2 0x2206 JUMPI PUSH1 0x0 DUP1 REVERT JUMPDEST PUSH1 0x1 PUSH1 0x1 PUSH1 0x40 SHL SUB DUP14 CALLDATALOAD GT ISZERO PUSH2 0x221B JUMPI PUSH1 0x0 DUP1 REVERT JUMPDEST PUSH2 0x2228 DUP15 DUP15 CALLDATALOAD DUP16 ADD PUSH2 0x2148 JUMP JUMPDEST SWAP1 SWAP13 POP SWAP11 POP PUSH1 0x1 PUSH1 0x1 PUSH1 0x40 SHL SUB PUSH1 0x20 DUP15 ADD CALLDATALOAD GT ISZERO PUSH2 0x2245 JUMPI PUSH1 0x0 DUP1 REVERT JUMPDEST PUSH2 0x2255 DUP15 PUSH1 0x20 DUP16 ADD CALLDATALOAD DUP16 ADD PUSH2 0x2148 JUMP JUMPDEST SWAP1 SWAP11 POP SWAP9 POP PUSH1 0x1 PUSH1 0x1 PUSH1 0x40 SHL SUB PUSH1 0x40 DUP15 ADD CALLDATALOAD GT ISZERO PUSH2 0x2272 JUMPI PUSH1 0x0 DUP1 REVERT JUMPDEST PUSH2 0x2282 DUP15 PUSH1 0x40 DUP16 ADD CALLDATALOAD DUP16 ADD PUSH2 0x2148 JUMP JUMPDEST SWAP1 SWAP9 POP SWAP7 POP PUSH2 0x2293 PUSH1 0x60 DUP15 ADD PUSH2 0x2190 JUMP JUMPDEST SWAP6 POP PUSH1 0x80 DUP14 ADD CALLDATALOAD SWAP5 POP PUSH1 0xA0 DUP14 ADD CALLDATALOAD SWAP4 POP PUSH1 0xC0 DUP14 ADD CALLDATALOAD SWAP3 POP PUSH1 0x1 PUSH1 0x1 PUSH1 0x40 SHL SUB PUSH1 0xE0 DUP15 ADD CALLDATALOAD GT ISZERO PUSH2 0x22C2 JUMPI PUSH1 0x0 DUP1 REVERT JUMPDEST PUSH2 0x22D2 DUP15 PUSH1 0xE0 DUP16 ADD CALLDATALOAD DUP16 ADD PUSH2 0x219F JUMP JUMPDEST DUP2 SWAP4 POP DUP1 SWAP3 POP POP POP SWAP3 SWAP6 SWAP9 SWAP12 POP SWAP3 SWAP6 SWAP9 SWAP12 POP SWAP3 SWAP6 SWAP9 SWAP12 JUMP JUMPDEST PUSH1 0x0 PUSH1 0x20 DUP3 DUP5 SUB SLT ISZERO PUSH2 0x22FC JUMPI PUSH1 0x0 DUP1 REVERT JUMPDEST PUSH2 0xD8A DUP3 PUSH2 0x1FBA JUMP JUMPDEST PUSH4 0x4E487B71 PUSH1 0xE0 SHL PUSH1 0x0 MSTORE PUSH1 0x41 PUSH1 0x4 MSTORE PUSH1 0x24 PUSH1 0x0 REVERT JUMPDEST PUSH1 0x40 MLOAD PUSH1 0x1F DUP3 ADD PUSH1 0x1F NOT AND DUP2 ADD PUSH1 0x1 PUSH1 0x1 PUSH1 0x40 SHL SUB DUP2 GT DUP3 DUP3 LT OR ISZERO PUSH2 0x2343 JUMPI PUSH2 0x2343 PUSH2 0x2305 JUMP JUMPDEST PUSH1 0x40 MSTORE SWAP2 SWAP1 POP JUMP JUMPDEST PUSH1 0x0 DUP3 PUSH1 0x1F DUP4 ADD SLT PUSH2 0x235C JUMPI PUSH1 0x0 DUP1 REVERT JUMPDEST DUP2 CALLDATALOAD PUSH1 0x1 PUSH1 0x1 PUSH1 0x40 SHL SUB DUP2 GT ISZERO PUSH2 0x2375 JUMPI PUSH2 0x2375 PUSH2 0x2305 JUMP JUMPDEST PUSH2 0x2388 PUSH1 0x1F DUP3 ADD PUSH1 0x1F NOT AND PUSH1 0x20 ADD PUSH2 0x231B JUMP JUMPDEST DUP2 DUP2 MSTORE DUP5 PUSH1 0x20 DUP4 DUP7 ADD ADD GT ISZERO PUSH2 0x239D JUMPI PUSH1 0x0 DUP1 REVERT JUMPDEST DUP2 PUSH1 0x20 DUP6 ADD PUSH1 0x20 DUP4 ADD CALLDATACOPY PUSH1 0x0 SWAP2 DUP2 ADD PUSH1 0x20 ADD SWAP2 SWAP1 SWAP2 MSTORE SWAP4 SWAP3 POP POP POP JUMP JUMPDEST PUSH1 0x0 DUP1 PUSH1 0x40 DUP4 DUP6 SUB SLT ISZERO PUSH2 0x23CD JUMPI PUSH1 0x0 DUP1 REVERT JUMPDEST DUP3 CALLDATALOAD PUSH1 0x1 PUSH1 0x1 PUSH1 0x40 SHL SUB DUP2 GT ISZERO PUSH2 0x23E3 JUMPI PUSH1 0x0 DUP1 REVERT JUMPDEST PUSH2 0x23EF DUP6 DUP3 DUP7 ADD PUSH2 0x234B JUMP JUMPDEST SWAP6 PUSH1 0x20 SWAP5 SWAP1 SWAP5 ADD CALLDATALOAD SWAP5 POP POP POP POP JUMP JUMPDEST DUP1 CALLDATALOAD DUP1 ISZERO ISZERO DUP2 EQ PUSH2 0x1FD1 JUMPI PUSH1 0x0 DUP1 REVERT JUMPDEST PUSH1 0x0 DUP1 PUSH1 0x0 DUP1 PUSH1 0x0 DUP1 PUSH1 0x0 PUSH1 0xA0 DUP9 DUP11 SUB SLT ISZERO PUSH2 0x2429 JUMPI PUSH1 0x0 DUP1 REVERT JUMPDEST DUP8 CALLDATALOAD SWAP7 POP PUSH1 0x20 DUP9 ADD CALLDATALOAD SWAP6 POP PUSH2 0x2440 PUSH1 0x40 DUP10 ADD PUSH2 0x23FE JUMP JUMPDEST SWAP5 POP PUSH1 0x60 DUP9 ADD CALLDATALOAD PUSH1 0x1 PUSH1 0x1 PUSH1 0x40 SHL SUB DUP1 DUP3 GT ISZERO PUSH2 0x245C JUMPI PUSH1 0x0 DUP1 REVERT JUMPDEST PUSH2 0x2468 DUP12 DUP4 DUP13 ADD PUSH2 0x2148 JUMP JUMPDEST SWAP1 SWAP7 POP SWAP5 POP PUSH1 0x80 DUP11 ADD CALLDATALOAD SWAP2 POP DUP1 DUP3 GT ISZERO PUSH2 0x2481 JUMPI PUSH1 0x0 DUP1 REVERT JUMPDEST POP PUSH2 0x248E DUP11 DUP3 DUP12 ADD PUSH2 0x2148 JUMP JUMPDEST SWAP9 SWAP12 SWAP8 SWAP11 POP SWAP6 SWAP9 POP SWAP4 SWAP7 SWAP3 SWAP6 SWAP3 SWAP4 POP POP POP JUMP JUMPDEST PUSH1 0x0 DUP1 PUSH1 0x40 DUP4 DUP6 SUB SLT ISZERO PUSH2 0x24B4 JUMPI PUSH1 0x0 DUP1 REVERT JUMPDEST POP POP DUP1 CALLDATALOAD SWAP3 PUSH1 0x20 SWAP1 SWAP2 ADD CALLDATALOAD SWAP2 POP JUMP JUMPDEST PUSH1 0x0 DUP1 PUSH1 0x20 DUP4 DUP6 SUB SLT ISZERO PUSH2 0x24D6 JUMPI PUSH1 0x0 DUP1 REVERT JUMPDEST DUP3 CALLDATALOAD PUSH1 0x1 PUSH1 0x1 PUSH1 0x40 SHL SUB DUP2 GT ISZERO PUSH2 0x24EC JUMPI PUSH1 0x0 DUP1 REVERT JUMPDEST PUSH2 0x24F8 DUP6 DUP3 DUP7 ADD PUSH2 0x2148 JUMP JUMPDEST SWAP1 SWAP7 SWAP1 SWAP6 POP SWAP4 POP POP POP POP JUMP JUMPDEST PUSH1 0x20 DUP1 DUP3 MSTORE DUP3 MLOAD DUP3 DUP3 ADD DUP2 SWAP1 MSTORE PUSH1 0x0 SWAP2 SWAP1 DUP5 DUP3 ADD SWAP1 PUSH1 0x40 DUP6 ADD SWAP1 DUP5 JUMPDEST DUP2 DUP2 LT ISZERO PUSH2 0x253C JUMPI DUP4 MLOAD DUP4 MSTORE SWAP3 DUP5 ADD SWAP3 SWAP2 DUP5 ADD SWAP2 PUSH1 0x1 ADD PUSH2 0x2520 JUMP JUMPDEST POP SWAP1 SWAP7 SWAP6 POP POP POP POP POP POP JUMP JUMPDEST PUSH1 0x0 DUP1 PUSH1 0x0 DUP1 PUSH1 0x0 DUP1 PUSH1 0xC0 DUP8 DUP10 SUB SLT ISZERO PUSH2 0x2561 JUMPI PUSH1 0x0 DUP1 REVERT JUMPDEST DUP7 CALLDATALOAD SWAP6 POP PUSH2 0x2571 PUSH1 0x20 DUP9 ADD PUSH2 0x1FBA JUMP JUMPDEST SWAP5 POP PUSH1 0x40 DUP8 ADD CALLDATALOAD SWAP4 POP PUSH2 0x2586 PUSH1 0x60 DUP9 ADD PUSH2 0x23FE JUMP JUMPDEST SWAP3 POP PUSH1 0x80 DUP8 ADD CALLDATALOAD SWAP2 POP PUSH1 0xA0 DUP8 ADD CALLDATALOAD SWAP1 POP SWAP3 SWAP6 POP SWAP3 SWAP6 POP SWAP3 SWAP6 JUMP JUMPDEST PUSH1 0x20 DUP1 DUP3 MSTORE DUP3 MLOAD DUP3 DUP3 ADD DUP2 SWAP1 MSTORE PUSH1 0x0 SWAP2 SWAP1 PUSH1 0x40 SWAP1 DUP2 DUP6 ADD SWAP1 DUP7 DUP5 ADD DUP6 JUMPDEST DUP3 DUP2 LT ISZERO PUSH2 0x2616 JUMPI DUP2 MLOAD DUP1 MLOAD DUP6 MSTORE DUP7 DUP2 ADD MLOAD PUSH1 0x1 PUSH1 0x1 PUSH1 0xA0 SHL SUB AND DUP8 DUP7 ADD MSTORE DUP6 DUP2 ADD MLOAD DUP7 DUP7 ADD MSTORE PUSH1 0x60 DUP1 DUP3 ADD MLOAD SWAP1 DUP7 ADD MSTORE PUSH1 0x80 DUP1 DUP3 ADD MLOAD SWAP1 DUP7 ADD MSTORE PUSH1 0xA0 SWAP1 DUP2 ADD MLOAD ISZERO ISZERO SWAP1 DUP6 ADD MSTORE PUSH1 0xC0 SWAP1 SWAP4 ADD SWAP3 SWAP1 DUP6 ADD SWAP1 PUSH1 0x1 ADD PUSH2 0x25BD JUMP JUMPDEST POP SWAP2 SWAP8 SWAP7 POP POP POP POP POP POP POP JUMP JUMPDEST PUSH1 0x0 DUP1 PUSH1 0x40 DUP4 DUP6 SUB SLT ISZERO PUSH2 0x2636 JUMPI PUSH1 0x0 DUP1 REVERT JUMPDEST DUP3 CALLDATALOAD SWAP2 POP PUSH1 0x20 DUP4 ADD CALLDATALOAD PUSH1 0xFF DUP2 AND DUP2 EQ PUSH2 0x264E JUMPI PUSH1 0x0 DUP1 REVERT JUMPDEST DUP1 SWAP2 POP POP SWAP3 POP SWAP3 SWAP1 POP JUMP JUMPDEST PUSH1 0x0 DUP2 MLOAD DUP1 DUP5 MSTORE PUSH1 0x20 DUP1 DUP6 ADD DUP1 DUP2 SWAP7 POP DUP4 PUSH1 0x5 SHL DUP2 ADD SWAP2 POP DUP3 DUP7 ADD PUSH1 0x0 JUMPDEST DUP6 DUP2 LT ISZERO PUSH2 0x2616 JUMPI DUP3 DUP5 SUB DUP10 MSTORE PUSH2 0x268F DUP5 DUP4 MLOAD PUSH2 0x2019 JUMP JUMPDEST SWAP9 DUP6 ADD SWAP9 SWAP4 POP SWAP1 DUP5 ADD SWAP1 PUSH1 0x1 ADD PUSH2 0x2677 JUMP JUMPDEST PUSH1 0x20 DUP2 MSTORE DUP2 MLOAD PUSH1 0x20 DUP3 ADD MSTORE PUSH1 0x0 PUSH1 0x20 DUP4 ADD MLOAD PUSH2 0x26C8 PUSH1 0x40 DUP5 ADD DUP3 PUSH1 0x1 PUSH1 0x1 PUSH1 0xA0 SHL SUB AND SWAP1 MSTORE JUMP JUMPDEST POP PUSH1 0x40 DUP4 ADD MLOAD PUSH2 0x1E0 DUP1 PUSH1 0x60 DUP6 ADD MSTORE PUSH2 0x26E5 PUSH2 0x200 DUP6 ADD DUP4 PUSH2 0x2019 JUMP JUMPDEST SWAP2 POP PUSH1 0x60 DUP6 ADD MLOAD PUSH1 0x1F NOT DUP1 DUP7 DUP6 SUB ADD PUSH1 0x80 DUP8 ADD MSTORE PUSH2 0x2703 DUP5 DUP4 PUSH2 0x2019 JUMP JUMPDEST SWAP4 POP PUSH1 0x80 DUP8 ADD MLOAD SWAP2 POP DUP1 DUP7 DUP6 SUB ADD PUSH1 0xA0 DUP8 ADD MSTORE PUSH2 0x2720 DUP5 DUP4 PUSH2 0x2019 JUMP JUMPDEST SWAP4 POP PUSH1 0xA0 DUP8 ADD MLOAD SWAP2 POP PUSH2 0x2736 PUSH1 0xC0 DUP8 ADD DUP4 PUSH2 0x2075 JUMP JUMPDEST PUSH1 0xC0 DUP8 ADD MLOAD PUSH1 0xE0 DUP8 DUP2 ADD SWAP2 SWAP1 SWAP2 MSTORE DUP8 ADD MLOAD PUSH2 0x100 DUP1 DUP9 ADD SWAP2 SWAP1 SWAP2 MSTORE DUP8 ADD MLOAD PUSH2 0x120 DUP1 DUP9 ADD SWAP2 SWAP1 SWAP2 MSTORE DUP8 ADD MLOAD SWAP2 POP PUSH2 0x140 PUSH2 0x2773 DUP2 DUP9 ADD DUP5 ISZERO ISZERO SWAP1 MSTORE JUMP JUMPDEST DUP8 ADD MLOAD PUSH2 0x160 DUP8 DUP2 ADD SWAP2 SWAP1 SWAP2 MSTORE DUP8 ADD MLOAD PUSH2 0x180 DUP1 DUP9 ADD SWAP2 SWAP1 SWAP2 MSTORE DUP8 ADD MLOAD PUSH2 0x1A0 DUP1 DUP9 ADD SWAP2 SWAP1 SWAP2 MSTORE DUP8 ADD MLOAD PUSH2 0x1C0 DUP1 DUP9 ADD SWAP2 SWAP1 SWAP2 MSTORE DUP8 ADD MLOAD DUP7 DUP6 SUB SWAP1 SWAP2 ADD DUP4 DUP8 ADD MSTORE SWAP1 POP PUSH2 0x27C0 DUP4 DUP3 PUSH2 0x2659 JUMP JUMPDEST SWAP7 SWAP6 POP POP POP POP POP POP JUMP JUMPDEST PUSH1 0x0 PUSH1 0x20 DUP3 DUP5 SUB SLT ISZERO PUSH2 0x27DC JUMPI PUSH1 0x0 DUP1 REVERT JUMPDEST DUP2 CALLDATALOAD PUSH1 0x1 PUSH1 0x1 PUSH1 0x40 SHL SUB DUP2 GT ISZERO PUSH2 0x27F2 JUMPI PUSH1 0x0 DUP1 REVERT JUMPDEST PUSH2 0xD4A DUP5 DUP3 DUP6 ADD PUSH2 0x234B JUMP JUMPDEST PUSH1 0x1 DUP2 DUP2 SHR SWAP1 DUP3 AND DUP1 PUSH2 0x2812 JUMPI PUSH1 0x7F DUP3 AND SWAP2 POP JUMPDEST PUSH1 0x20 DUP3 LT DUP2 SUB PUSH2 0x2832 JUMPI PUSH4 0x4E487B71 PUSH1 0xE0 SHL PUSH1 0x0 MSTORE PUSH1 0x22 PUSH1 0x4 MSTORE PUSH1 0x24 PUSH1 0x0 REVERT JUMPDEST POP SWAP2 SWAP1 POP JUMP JUMPDEST PUSH12 0xFFFFFFFFFFFFFFFFFFFFFFFF NOT DUP7 PUSH1 0x60 SHL AND DUP2 MSTORE DUP4 DUP6 PUSH1 0x14 DUP4 ADD CALLDATACOPY PUSH1 0x14 SWAP4 ADD SWAP3 DUP4 ADD SWAP2 SWAP1 SWAP2 MSTORE PUSH1 0x34 DUP3 ADD MSTORE PUSH1 0x54 ADD SWAP3 SWAP2 POP POP JUMP JUMPDEST PUSH1 0x0 PUSH1 0x1 PUSH1 0x1 PUSH1 0x40 SHL SUB DUP1 DUP5 GT ISZERO PUSH2 0x2887 JUMPI PUSH2 0x2887 PUSH2 0x2305 JUMP JUMPDEST DUP4 PUSH1 0x5 SHL PUSH1 0x20 PUSH2 0x2898 DUP2 DUP4 ADD PUSH2 0x231B JUMP JUMPDEST DUP7 DUP2 MSTORE SWAP2 DUP6 ADD SWAP2 DUP2 DUP2 ADD SWAP1 CALLDATASIZE DUP5 GT ISZERO PUSH2 0x28B0 JUMPI PUSH1 0x0 DUP1 REVERT JUMPDEST DUP7 JUMPDEST DUP5 DUP2 LT ISZERO PUSH2 0x28E4 JUMPI DUP1 CALLDATALOAD DUP7 DUP2 GT ISZERO PUSH2 0x28CA JUMPI PUSH1 0x0 DUP1 DUP2 REVERT JUMPDEST PUSH2 0x28D6 CALLDATASIZE DUP3 DUP12 ADD PUSH2 0x234B JUMP JUMPDEST DUP5 MSTORE POP SWAP2 DUP4 ADD SWAP2 DUP4 ADD PUSH2 0x28B2 JUMP JUMPDEST POP SWAP8 SWAP7 POP POP POP POP POP POP POP JUMP JUMPDEST PUSH1 0x1F DUP3 GT ISZERO PUSH2 0x293A JUMPI PUSH1 0x0 DUP2 DUP2 MSTORE PUSH1 0x20 DUP2 KECCAK256 PUSH1 0x1F DUP6 ADD PUSH1 0x5 SHR DUP2 ADD PUSH1 0x20 DUP7 LT ISZERO PUSH2 0x2917 JUMPI POP DUP1 JUMPDEST PUSH1 0x1F DUP6 ADD PUSH1 0x5 SHR DUP3 ADD SWAP2 POP JUMPDEST DUP2 DUP2 LT ISZERO PUSH2 0x2936 JUMPI DUP3 DUP2 SSTORE PUSH1 0x1 ADD PUSH2 0x2923 JUMP JUMPDEST POP POP POP JUMPDEST POP POP POP JUMP JUMPDEST DUP2 MLOAD PUSH1 0x1 PUSH1 0x1 PUSH1 0x40 SHL SUB DUP2 GT ISZERO PUSH2 0x2958 JUMPI PUSH2 0x2958 PUSH2 0x2305 JUMP JUMPDEST PUSH2 0x296C DUP2 PUSH2 0x2966 DUP5 SLOAD PUSH2 0x27FE JUMP JUMPDEST DUP5 PUSH2 0x28F0 JUMP JUMPDEST PUSH1 0x20 DUP1 PUSH1 0x1F DUP4 GT PUSH1 0x1 DUP2 EQ PUSH2 0x29A1 JUMPI PUSH1 0x0 DUP5 ISZERO PUSH2 0x2989 JUMPI POP DUP6 DUP4 ADD MLOAD JUMPDEST PUSH1 0x0 NOT PUSH1 0x3 DUP7 SWAP1 SHL SHR NOT AND PUSH1 0x1 DUP6 SWAP1 SHL OR DUP6 SSTORE PUSH2 0x2936 JUMP JUMPDEST PUSH1 0x0 DUP6 DUP2 MSTORE PUSH1 0x20 DUP2 KECCAK256 PUSH1 0x1F NOT DUP7 AND SWAP2 JUMPDEST DUP3 DUP2 LT ISZERO PUSH2 0x29D0 JUMPI DUP9 DUP7 ADD MLOAD DUP3 SSTORE SWAP5 DUP5 ADD SWAP5 PUSH1 0x1 SWAP1 SWAP2 ADD SWAP1 DUP5 ADD PUSH2 0x29B1 JUMP JUMPDEST POP DUP6 DUP3 LT ISZERO PUSH2 0x29EE JUMPI DUP8 DUP6 ADD MLOAD PUSH1 0x0 NOT PUSH1 0x3 DUP9 SWAP1 SHL PUSH1 0xF8 AND SHR NOT AND DUP2 SSTORE JUMPDEST POP POP POP POP POP PUSH1 0x1 SWAP1 DUP2 SHL ADD SWAP1 SSTORE POP JUMP JUMPDEST PUSH4 0x4E487B71 PUSH1 0xE0 SHL PUSH1 0x0 MSTORE PUSH1 0x32 PUSH1 0x4 MSTORE PUSH1 0x24 PUSH1 0x0 REVERT JUMPDEST PUSH1 0x0 DUP1 DUP4 CALLDATALOAD PUSH1 0x1E NOT DUP5 CALLDATASIZE SUB ADD DUP2 SLT PUSH2 0x2A2B JUMPI PUSH1 0x0 DUP1 REVERT JUMPDEST DUP4 ADD DUP1 CALLDATALOAD SWAP2 POP PUSH1 0x1 PUSH1 0x1 PUSH1 0x40 SHL SUB DUP3 GT ISZERO PUSH2 0x2A45 JUMPI PUSH1 0x0 DUP1 REVERT JUMPDEST PUSH1 0x20 ADD SWAP2 POP CALLDATASIZE DUP2 SWAP1 SUB DUP3 SGT ISZERO PUSH2 0x2189 JUMPI PUSH1 0x0 DUP1 REVERT JUMPDEST DUP2 DUP4 DUP3 CALLDATACOPY PUSH1 0x0 SWAP2 ADD SWAP1 DUP2 MSTORE SWAP2 SWAP1 POP JUMP JUMPDEST PUSH4 0x4E487B71 PUSH1 0xE0 SHL PUSH1 0x0 MSTORE PUSH1 0x11 PUSH1 0x4 MSTORE PUSH1 0x24 PUSH1 0x0 REVERT JUMPDEST PUSH1 0x0 PUSH1 0x1 DUP3 ADD PUSH2 0x2A92 JUMPI PUSH2 0x2A92 PUSH2 0x2A6A JUMP JUMPDEST POP PUSH1 0x1 ADD SWAP1 JUMP JUMPDEST PUSH1 0x60 DUP2 MSTORE DUP4 PUSH1 0x60 DUP3 ADD MSTORE DUP4 DUP6 PUSH1 0x80 DUP4 ADD CALLDATACOPY PUSH1 0x0 PUSH1 0x80 DUP6 DUP4 ADD ADD MSTORE PUSH1 0x0 PUSH1 0x80 PUSH1 0x1F NOT PUSH1 0x1F DUP8 ADD AND DUP4 ADD ADD SWAP1 POP PUSH2 0x2AD1 PUSH1 0x20 DUP4 ADD DUP6 PUSH2 0x2075 JUMP JUMPDEST DUP3 PUSH1 0x40 DUP4 ADD MSTORE SWAP6 SWAP5 POP POP POP POP POP JUMP JUMPDEST PUSH1 0x1 PUSH1 0x1 PUSH1 0x40 SHL SUB DUP4 GT ISZERO PUSH2 0x2AF7 JUMPI PUSH2 0x2AF7 PUSH2 0x2305 JUMP JUMPDEST PUSH2 0x2B0B DUP4 PUSH2 0x2B05 DUP4 SLOAD PUSH2 0x27FE JUMP JUMPDEST DUP4 PUSH2 0x28F0 JUMP JUMPDEST PUSH1 0x0 PUSH1 0x1F DUP5 GT PUSH1 0x1 DUP2 EQ PUSH2 0x2B3F JUMPI PUSH1 0x0 DUP6 ISZERO PUSH2 0x2B27 JUMPI POP DUP4 DUP3 ADD CALLDATALOAD JUMPDEST PUSH1 0x0 NOT PUSH1 0x3 DUP8 SWAP1 SHL SHR NOT AND PUSH1 0x1 DUP7 SWAP1 SHL OR DUP4 SSTORE PUSH2 0x2B99 JUMP JUMPDEST PUSH1 0x0 DUP4 DUP2 MSTORE PUSH1 0x20 SWAP1 KECCAK256 PUSH1 0x1F NOT DUP7 AND SWAP1 DUP4 JUMPDEST DUP3 DUP2 LT ISZERO PUSH2 0x2B70 JUMPI DUP7 DUP6 ADD CALLDATALOAD DUP3 SSTORE PUSH1 0x20 SWAP5 DUP6 ADD SWAP5 PUSH1 0x1 SWAP1 SWAP3 ADD SWAP2 ADD PUSH2 0x2B50 JUMP JUMPDEST POP DUP7 DUP3 LT ISZERO PUSH2 0x2B8D JUMPI PUSH1 0x0 NOT PUSH1 0xF8 DUP9 PUSH1 0x3 SHL AND SHR NOT DUP5 DUP8 ADD CALLDATALOAD AND DUP2 SSTORE JUMPDEST POP POP PUSH1 0x1 DUP6 PUSH1 0x1 SHL ADD DUP4 SSTORE JUMPDEST POP POP POP POP POP JUMP JUMPDEST DUP1 DUP3 MUL DUP2 ISZERO DUP3 DUP3 DIV DUP5 EQ OR PUSH2 0xD4E JUMPI PUSH2 0xD4E PUSH2 0x2A6A JUMP JUMPDEST PUSH1 0x0 DUP3 PUSH2 0x2BD4 JUMPI PUSH4 0x4E487B71 PUSH1 0xE0 SHL PUSH1 0x0 MSTORE PUSH1 0x12 PUSH1 0x4 MSTORE PUSH1 0x24 PUSH1 0x0 REVERT JUMPDEST POP DIV SWAP1 JUMP JUMPDEST DUP1 DUP3 ADD DUP1 DUP3 GT ISZERO PUSH2 0xD4E JUMPI PUSH2 0xD4E PUSH2 0x2A6A JUMP JUMPDEST PUSH1 0xFF DUP2 DUP2 AND DUP4 DUP3 AND MUL SWAP1 DUP2 AND SWAP1 DUP2 DUP2 EQ PUSH2 0x2C08 JUMPI PUSH2 0x2C08 PUSH2 0x2A6A JUMP JUMPDEST POP SWAP3 SWAP2 POP POP JUMP JUMPDEST DUP2 DUP2 SUB DUP2 DUP2 GT ISZERO PUSH2 0xD4E JUMPI PUSH2 0xD4E PUSH2 0x2A6A JUMP INVALID LOG2 PUSH5 0x6970667358 0x22 SLT KECCAK256 0xD5 0xC 0x2F 0xE8 0xCC 0xD6 0xA8 0x2D 0xE5 0xB4 0xFB DUP14 0xB6 PUSH20 0x5C39226E51FE4271ABCF4306CF1B032596056473 PUSH16 0x6C634300081400330000000000000000 "},"methodIdentifiers":{"activeServiceIds(uint256)":"ee3e1a0e","calculateCost(bytes32,uint256)":"51408de3","consumerHistory(address,uint256)":"bf009230","getActiveServices(uint256,uint256)":"bf00fae3","getAverageRating(bytes32)":"53031040","getConsumerHistory(address)":"9fa3a570","getMarketplaceStats()":"812d966a","getProviderServices(address)":"9747ac5f","getService(bytes32)":"da47d856","getServicesByTag(string)":"6e9b0d6d","minServiceRate()":"4a9df43d","owner()":"8da5cb5b","paymentStreamContract()":"f0609f35","platformFeeBps()":"22dcd13e","providerEarnings(address)":"159a6594","providerServices(address,uint256)":"03731b9e","rateService(bytes32,uint8)":"a8dd46d0","recordConsumption(bytes32,address,uint256,bool,uint256,uint256)":"9363104f","registerService(string,string,string,uint8,uint256,uint256,uint256,string[])":"0cd32e53","renounceOwnership()":"715018a6","searchServices(string)":"ce8cce7f","services(bytes32)":"0a790eb7","setMinServiceRate(uint256)":"1f0b70ed","setPaymentStreamContract(address)":"5e56198e","standardServices(string)":"fa2114c5","tagIndex(string,uint256)":"2733aec9","totalServices()":"6301ac8f","transferOwnership(address)":"f2fde38b","updateService(bytes32,uint256,bool,string,string)":"2f0adf91"}}}}}