{
  "_format": "hh-sol-artifact-1",
  "contractName": "PaymentStreamV2",
  "sourceName": "contracts/PaymentStreamV2.sol",
  "abi": [
    {
      "inputs": [
        {
          "internalType": "address",
          "name": "_usdt",
          "type": "address"
        },
        {
          "internalType": "address",
          "name": "_feeRecipient",
          "type": "address"
        }
      ],
      "stateMutability": "nonpayable",
      "type": "constructor"
    },
    {
      "inputs": [
        {
          "internalType": "address",
          "name": "owner",
          "type": "address"
        }
      ],
      "name": "OwnableInvalidOwner",
      "type": "error"
    },
    {
      "inputs": [
        {
          "internalType": "address",
          "name": "account",
          "type": "address"
        }
      ],
      "name": "OwnableUnauthorizedAccount",
      "type": "error"
    },
    {
      "inputs": [],
      "name": "ReentrancyGuardReentrantCall",
      "type": "error"
    },
    {
      "anonymous": false,
      "inputs": [
        {
          "indexed": true,
          "internalType": "address",
          "name": "sender",
          "type": "address"
        },
        {
          "indexed": true,
          "internalType": "address",
          "name": "recipient",
          "type": "address"
        },
        {
          "indexed": false,
          "internalType": "bool",
          "name": "enabled",
          "type": "bool"
        }
      ],
      "name": "AutoRenewalToggled",
      "type": "event"
    },
    {
      "anonymous": false,
      "inputs": [
        {
          "indexed": true,
          "internalType": "bytes32",
          "name": "streamId",
          "type": "bytes32"
        },
        {
          "indexed": true,
          "internalType": "address",
          "name": "recipient",
          "type": "address"
        },
        {
          "indexed": false,
          "internalType": "string",
          "name": "notificationType",
          "type": "string"
        },
        {
          "indexed": false,
          "internalType": "string",
          "name": "message",
          "type": "string"
        }
      ],
      "name": "NotificationSent",
      "type": "event"
    },
    {
      "anonymous": false,
      "inputs": [
        {
          "indexed": true,
          "internalType": "address",
          "name": "previousOwner",
          "type": "address"
        },
        {
          "indexed": true,
          "internalType": "address",
          "name": "newOwner",
          "type": "address"
        }
      ],
      "name": "OwnershipTransferred",
      "type": "event"
    },
    {
      "anonymous": false,
      "inputs": [
        {
          "indexed": true,
          "internalType": "bytes32",
          "name": "streamId",
          "type": "bytes32"
        },
        {
          "indexed": true,
          "internalType": "address",
          "name": "sender",
          "type": "address"
        },
        {
          "indexed": false,
          "internalType": "uint256",
          "name": "remainingAmount",
          "type": "uint256"
        }
      ],
      "name": "StreamCancelled",
      "type": "event"
    },
    {
      "anonymous": false,
      "inputs": [
        {
          "indexed": true,
          "internalType": "bytes32",
          "name": "streamId",
          "type": "bytes32"
        },
        {
          "indexed": false,
          "internalType": "bool",
          "name": "autoRenewed",
          "type": "bool"
        }
      ],
      "name": "StreamCompleted",
      "type": "event"
    },
    {
      "anonymous": false,
      "inputs": [
        {
          "indexed": true,
          "internalType": "bytes32",
          "name": "streamId",
          "type": "bytes32"
        },
        {
          "indexed": true,
          "internalType": "address",
          "name": "sender",
          "type": "address"
        },
        {
          "indexed": true,
          "internalType": "address",
          "name": "recipient",
          "type": "address"
        },
        {
          "indexed": false,
          "internalType": "uint256",
          "name": "amount",
          "type": "uint256"
        },
        {
          "indexed": false,
          "internalType": "uint256",
          "name": "startTime",
          "type": "uint256"
        },
        {
          "indexed": false,
          "internalType": "uint256",
          "name": "endTime",
          "type": "uint256"
        },
        {
          "indexed": false,
          "internalType": "string",
          "name": "serviceId",
          "type": "string"
        },
        {
          "indexed": false,
          "internalType": "bool",
          "name": "autoRenew",
          "type": "bool"
        }
      ],
      "name": "StreamCreated",
      "type": "event"
    },
    {
      "anonymous": false,
      "inputs": [
        {
          "indexed": true,
          "internalType": "bytes32",
          "name": "streamId",
          "type": "bytes32"
        },
        {
          "indexed": false,
          "internalType": "uint256",
          "name": "pausedAt",
          "type": "uint256"
        },
        {
          "indexed": false,
          "internalType": "uint256",
          "name": "remainingTime",
          "type": "uint256"
        }
      ],
      "name": "StreamPaused",
      "type": "event"
    },
    {
      "anonymous": false,
      "inputs": [
        {
          "indexed": true,
          "internalType": "bytes32",
          "name": "streamId",
          "type": "bytes32"
        },
        {
          "indexed": false,
          "internalType": "bytes32",
          "name": "newStreamId",
          "type": "bytes32"
        },
        {
          "indexed": false,
          "internalType": "uint256",
          "name": "amount",
          "type": "uint256"
        },
        {
          "indexed": false,
          "internalType": "uint256",
          "name": "newEndTime",
          "type": "uint256"
        }
      ],
      "name": "StreamRenewed",
      "type": "event"
    },
    {
      "anonymous": false,
      "inputs": [
        {
          "indexed": true,
          "internalType": "bytes32",
          "name": "streamId",
          "type": "bytes32"
        },
        {
          "indexed": false,
          "internalType": "uint256",
          "name": "resumedAt",
          "type": "uint256"
        },
        {
          "indexed": false,
          "internalType": "uint256",
          "name": "newEndTime",
          "type": "uint256"
        }
      ],
      "name": "StreamResumed",
      "type": "event"
    },
    {
      "anonymous": false,
      "inputs": [
        {
          "indexed": true,
          "internalType": "bytes32",
          "name": "streamId",
          "type": "bytes32"
        },
        {
          "indexed": true,
          "internalType": "address",
          "name": "recipient",
          "type": "address"
        },
        {
          "indexed": false,
          "internalType": "uint256",
          "name": "amount",
          "type": "uint256"
        }
      ],
      "name": "StreamWithdrawn",
      "type": "event"
    },
    {
      "inputs": [],
      "name": "MAX_STREAM_DURATION",
      "outputs": [
        {
          "internalType": "uint256",
          "name": "",
          "type": "uint256"
        }
      ],
      "stateMutability": "view",
      "type": "function"
    },
    {
      "inputs": [],
      "name": "MIN_STREAM_DURATION",
      "outputs": [
        {
          "internalType": "uint256",
          "name": "",
          "type": "uint256"
        }
      ],
      "stateMutability": "view",
      "type": "function"
    },
    {
      "inputs": [
        {
          "internalType": "address",
          "name": "",
          "type": "address"
        },
        {
          "internalType": "address",
          "name": "",
          "type": "address"
        }
      ],
      "name": "autoRenewalEnabled",
      "outputs": [
        {
          "internalType": "bool",
          "name": "",
          "type": "bool"
        }
      ],
      "stateMutability": "view",
      "type": "function"
    },
    {
      "inputs": [
        {
          "internalType": "bytes32",
          "name": "streamId",
          "type": "bytes32"
        }
      ],
      "name": "availableBalance",
      "outputs": [
        {
          "internalType": "uint256",
          "name": "",
          "type": "uint256"
        }
      ],
      "stateMutability": "view",
      "type": "function"
    },
    {
      "inputs": [
        {
          "internalType": "bytes32",
          "name": "streamId",
          "type": "bytes32"
        }
      ],
      "name": "cancelStream",
      "outputs": [],
      "stateMutability": "nonpayable",
      "type": "function"
    },
    {
      "inputs": [
        {
          "internalType": "address",
          "name": "recipient",
          "type": "address"
        },
        {
          "internalType": "uint256",
          "name": "amount",
          "type": "uint256"
        },
        {
          "internalType": "uint256",
          "name": "duration",
          "type": "uint256"
        },
        {
          "internalType": "string",
          "name": "serviceId",
          "type": "string"
        },
        {
          "internalType": "bool",
          "name": "_autoRenew",
          "type": "bool"
        }
      ],
      "name": "createStream",
      "outputs": [
        {
          "internalType": "bytes32",
          "name": "streamId",
          "type": "bytes32"
        }
      ],
      "stateMutability": "nonpayable",
      "type": "function"
    },
    {
      "inputs": [],
      "name": "feeRecipient",
      "outputs": [
        {
          "internalType": "address",
          "name": "",
          "type": "address"
        }
      ],
      "stateMutability": "view",
      "type": "function"
    },
    {
      "inputs": [
        {
          "internalType": "address",
          "name": "user",
          "type": "address"
        }
      ],
      "name": "getAllStreamsForAddress",
      "outputs": [
        {
          "internalType": "bytes32[]",
          "name": "",
          "type": "bytes32[]"
        }
      ],
      "stateMutability": "view",
      "type": "function"
    },
    {
      "inputs": [
        {
          "internalType": "address",
          "name": "recipient",
          "type": "address"
        }
      ],
      "name": "getRecipientStreams",
      "outputs": [
        {
          "internalType": "bytes32[]",
          "name": "",
          "type": "bytes32[]"
        }
      ],
      "stateMutability": "view",
      "type": "function"
    },
    {
      "inputs": [
        {
          "internalType": "address",
          "name": "sender",
          "type": "address"
        }
      ],
      "name": "getSenderStreams",
      "outputs": [
        {
          "internalType": "bytes32[]",
          "name": "",
          "type": "bytes32[]"
        }
      ],
      "stateMutability": "view",
      "type": "function"
    },
    {
      "inputs": [
        {
          "internalType": "bytes32",
          "name": "streamId",
          "type": "bytes32"
        }
      ],
      "name": "getStream",
      "outputs": [
        {
          "internalType": "address",
          "name": "sender",
          "type": "address"
        },
        {
          "internalType": "address",
          "name": "recipient",
          "type": "address"
        },
        {
          "internalType": "uint256",
          "name": "depositAmount",
          "type": "uint256"
        },
        {
          "internalType": "uint256",
          "name": "withdrawnAmount",
          "type": "uint256"
        },
        {
          "internalType": "uint256",
          "name": "startTime",
          "type": "uint256"
        },
        {
          "internalType": "uint256",
          "name": "endTime",
          "type": "uint256"
        },
        {
          "internalType": "uint256",
          "name": "ratePerSecond",
          "type": "uint256"
        },
        {
          "internalType": "enum PaymentStreamV2.StreamStatus",
          "name": "status",
          "type": "uint8"
        },
        {
          "internalType": "string",
          "name": "serviceId",
          "type": "string"
        },
        {
          "internalType": "bool",
          "name": "autoRenew",
          "type": "bool"
        },
        {
          "internalType": "uint256",
          "name": "remainingTime",
          "type": "uint256"
        },
        {
          "internalType": "uint256",
          "name": "availableNow",
          "type": "uint256"
        }
      ],
      "stateMutability": "view",
      "type": "function"
    },
    {
      "inputs": [
        {
          "internalType": "address",
          "name": "user",
          "type": "address"
        },
        {
          "internalType": "enum PaymentStreamV2.StreamStatus",
          "name": "_status",
          "type": "uint8"
        }
      ],
      "name": "getStreamsByStatus",
      "outputs": [
        {
          "internalType": "bytes32[]",
          "name": "",
          "type": "bytes32[]"
        }
      ],
      "stateMutability": "view",
      "type": "function"
    },
    {
      "inputs": [],
      "name": "owner",
      "outputs": [
        {
          "internalType": "address",
          "name": "",
          "type": "address"
        }
      ],
      "stateMutability": "view",
      "type": "function"
    },
    {
      "inputs": [
        {
          "internalType": "bytes32",
          "name": "streamId",
          "type": "bytes32"
        }
      ],
      "name": "pauseStream",
      "outputs": [],
      "stateMutability": "nonpayable",
      "type": "function"
    },
    {
      "inputs": [],
      "name": "platformFeeBps",
      "outputs": [
        {
          "internalType": "uint256",
          "name": "",
          "type": "uint256"
        }
      ],
      "stateMutability": "view",
      "type": "function"
    },
    {
      "inputs": [
        {
          "internalType": "address",
          "name": "",
          "type": "address"
        },
        {
          "internalType": "uint256",
          "name": "",
          "type": "uint256"
        }
      ],
      "name": "recipientStreams",
      "outputs": [
        {
          "internalType": "bytes32",
          "name": "",
          "type": "bytes32"
        }
      ],
      "stateMutability": "view",
      "type": "function"
    },
    {
      "inputs": [],
      "name": "renounceOwnership",
      "outputs": [],
      "stateMutability": "nonpayable",
      "type": "function"
    },
    {
      "inputs": [
        {
          "internalType": "bytes32",
          "name": "streamId",
          "type": "bytes32"
        }
      ],
      "name": "resumeStream",
      "outputs": [],
      "stateMutability": "nonpayable",
      "type": "function"
    },
    {
      "inputs": [
        {
          "internalType": "address",
          "name": "",
          "type": "address"
        },
        {
          "internalType": "uint256",
          "name": "",
          "type": "uint256"
        }
      ],
      "name": "senderStreams",
      "outputs": [
        {
          "internalType": "bytes32",
          "name": "",
          "type": "bytes32"
        }
      ],
      "stateMutability": "view",
      "type": "function"
    },
    {
      "inputs": [
        {
          "internalType": "address",
          "name": "recipient",
          "type": "address"
        },
        {
          "internalType": "bool",
          "name": "enabled",
          "type": "bool"
        }
      ],
      "name": "setAutoRenewal",
      "outputs": [],
      "stateMutability": "nonpayable",
      "type": "function"
    },
    {
      "inputs": [
        {
          "internalType": "address",
          "name": "newFeeRecipient",
          "type": "address"
        }
      ],
      "name": "setFeeRecipient",
      "outputs": [],
      "stateMutability": "nonpayable",
      "type": "function"
    },
    {
      "inputs": [
        {
          "internalType": "uint256",
          "name": "newFeeBps",
          "type": "uint256"
        }
      ],
      "name": "setPlatformFee",
      "outputs": [],
      "stateMutability": "nonpayable",
      "type": "function"
    },
    {
      "inputs": [],
      "name": "streamCount",
      "outputs": [
        {
          "internalType": "uint256",
          "name": "",
          "type": "uint256"
        }
      ],
      "stateMutability": "view",
      "type": "function"
    },
    {
      "inputs": [
        {
          "internalType": "bytes32",
          "name": "",
          "type": "bytes32"
        }
      ],
      "name": "streams",
      "outputs": [
        {
          "internalType": "address",
          "name": "sender",
          "type": "address"
        },
        {
          "internalType": "address",
          "name": "recipient",
          "type": "address"
        },
        {
          "internalType": "uint256",
          "name": "depositAmount",
          "type": "uint256"
        },
        {
          "internalType": "uint256",
          "name": "withdrawnAmount",
          "type": "uint256"
        },
        {
          "internalType": "uint256",
          "name": "startTime",
          "type": "uint256"
        },
        {
          "internalType": "uint256",
          "name": "endTime",
          "type": "uint256"
        },
        {
          "internalType": "uint256",
          "name": "ratePerSecond",
          "type": "uint256"
        },
        {
          "internalType": "enum PaymentStreamV2.StreamStatus",
          "name": "status",
          "type": "uint8"
        },
        {
          "internalType": "string",
          "name": "serviceId",
          "type": "string"
        },
        {
          "internalType": "uint256",
          "name": "pausedTime",
          "type": "uint256"
        },
        {
          "internalType": "uint256",
          "name": "totalPaused",
          "type": "uint256"
        },
        {
          "internalType": "bool",
          "name": "autoRenew",
          "type": "bool"
        },
        {
          "internalType": "uint256",
          "name": "renewalCount",
          "type": "uint256"
        }
      ],
      "stateMutability": "view",
      "type": "function"
    },
    {
      "inputs": [
        {
          "internalType": "address",
          "name": "newOwner",
          "type": "address"
        }
      ],
      "name": "transferOwnership",
      "outputs": [],
      "stateMutability": "nonpayable",
      "type": "function"
    },
    {
      "inputs": [],
      "name": "usdt",
      "outputs": [
        {
          "internalType": "contract IERC20",
          "name": "",
          "type": "address"
        }
      ],
      "stateMutability": "view",
      "type": "function"
    },
    {
      "inputs": [
        {
          "internalType": "bytes32",
          "name": "streamId",
          "type": "bytes32"
        }
      ],
      "name": "withdraw",
      "outputs": [],
      "stateMutability": "nonpayable",
      "type": "function"
    }
  ],
  "bytecode": "0x608060405260196007553480156200001657600080fd5b5060405162002fa938038062002fa98339810160408190526200003991620001e0565b60017f9b779b17422d0df92223018b32b4d1fa46e071723d6817e2486d003becc55f005533806200008557604051631e4fbdf760e01b8152600060048201526024015b60405180910390fd5b620000908162000173565b506001600160a01b038216620000e95760405162461bcd60e51b815260206004820152601460248201527f496e76616c69642055534454206164647265737300000000000000000000000060448201526064016200007c565b6001600160a01b038116620001415760405162461bcd60e51b815260206004820152601560248201527f496e76616c69642066656520726563697069656e74000000000000000000000060448201526064016200007c565b600180546001600160a01b039384166001600160a01b0319918216179091556008805492909316911617905562000218565b600080546001600160a01b038381166001600160a01b0319831681178455604051919092169283917f8be0079c531659141344cd1fd0a4f28419497f9722a3daafe3b4186f6b6457e09190a35050565b80516001600160a01b0381168114620001db57600080fd5b919050565b60008060408385031215620001f457600080fd5b620001ff83620001c3565b91506200020f60208401620001c3565b90509250929050565b612d8180620002286000396000f3fe608060405234801561001057600080fd5b50600436106101a95760003560e01c80637f7bd2df116100f9578063c019f4fc11610097578063e74b981b11610071578063e74b981b146103c5578063ea8960a4146103d8578063f2fde38b146103eb578063f7afe902146103fe57600080fd5b8063c019f4fc1461038c578063cb3d97d91461039f578063dbf13122146103b257600080fd5b80638da5cb5b116100d35780638da5cb5b146103425780638e19899e1461035357806395dfb951146103665780639ec42bce1461037957600080fd5b80637f7bd2df146102fa57806389d0e119146103265780638aee81e51461032f57600080fd5b8063469048401161016657806350be33941161014057806350be3394146102c45780636282ee8e146102d75780637130fda7146102ea578063715018a6146102f257600080fd5b806346904840146102865780634705170614610299578063484db496146102a457600080fd5b80630882c8b7146101ae5780631290abe8146101f157806312e8e2c31461021c5780632019de281461023157806322dcd13e146102525780632f48ab7d1461025b575b600080fd5b6101dc6101bc366004612560565b600560209081526000928352604080842090915290825290205460ff1681565b60405190151581526020015b60405180910390f35b6102046101ff366004612593565b610411565b6040516101e89c9b9a9998979695949392919061262a565b61022f61022a366004612593565b6105d4565b005b61024461023f3660046126ae565b610627565b6040519081526020016101e8565b61024460075481565b60015461026e906001600160a01b031681565b6040516001600160a01b0390911681526020016101e8565b60085461026e906001600160a01b031681565b6102446301e1338081565b6102b76102b23660046126d8565b610658565b6040516101e89190612713565b61022f6102d2366004612593565b610871565b6102446102e5366004612765565b610a46565b610244603c81565b61022f610bfa565b61030d610308366004612593565b610c0e565b6040516101e89d9c9b9a9998979695949392919061280f565b61024460065481565b61022f61033d36600461289c565b610d15565b6000546001600160a01b031661026e565b61022f610361366004612593565b610dcb565b61022f610374366004612593565b61108e565b6102b76103873660046128c8565b611290565b6102b761039a3660046128c8565b611472565b61022f6103ad366004612593565b6114de565b6102446103c03660046126ae565b6118ad565b61022f6103d33660046128c8565b6118c9565b6102446103e6366004612593565b61193b565b61022f6103f93660046128c8565b611aa7565b6102b761040c3660046128c8565b611ae2565b60008181526002602081905260408220805460018201549282015460038301546004840154600a85015460058601546001600160a01b039586169897909516969395929491939283928392606092849283928392916104709190612900565b60068201546007830154600884018054939b5091995060ff1697509061049590612913565b80601f01602080910402602001604051908101604052809291908181526020018280546104c190612913565b801561050e5780601f106104e35761010080835404028352916020019161050e565b820191906000526020600020905b8154815290600101906020018083116104f157829003601f168201915b50505050600b8301549196505060ff1693506000866003811115610534576105346125ac565b0361057157600081600a0154826005015461054f9190612900565b905080421061055f576000610569565b610569428261294d565b9350506105b9565b6001866003811115610585576105856125ac565b036105b457806009015481600a015482600501546105a39190612900565b6105ad919061294d565b92506105b9565b600092505b6105c28e61193b565b91505091939597999b5091939597999b565b6105dc611b4c565b6101f48111156106225760405162461bcd60e51b815260206004820152600c60248201526b08ccaca40e8dede40d0d2ced60a31b60448201526064015b60405180910390fd5b600755565b6003602052816000526040600020818154811061064357600080fd5b90600052602060002001600091509150505481565b604051634f6215e760e11b81526001600160a01b03831660048201526060906000903090639ec42bce90602401600060405180830381865afa1580156106a2573d6000803e3d6000fd5b505050506040513d6000823e601f3d908101601f191682016040526106ca9190810190612976565b90506000805b8251811015610758578460038111156106eb576106eb6125ac565b6002600085848151811061070157610701612a34565b60209081029190910181015182528101919091526040016000206007015460ff166003811115610733576107336125ac565b03610746578161074281612a4a565b9250505b8061075081612a4a565b9150506106d0565b5060008167ffffffffffffffff81111561077457610774612960565b60405190808252806020026020018201604052801561079d578160200160208202803683370190505b5090506000805b8451811015610863578660038111156107bf576107bf6125ac565b600260008784815181106107d5576107d5612a34565b60209081029190910181015182528101919091526040016000206007015460ff166003811115610807576108076125ac565b036108515784818151811061081e5761081e612a34565b602002602001015183838151811061083857610838612a34565b60209081029190910101528161084d81612a4a565b9250505b8061085b81612a4a565b9150506107a4565b509093505050505b92915050565b600081815260026020526040812090600782015460ff166003811115610899576108996125ac565b146108da5760405162461bcd60e51b815260206004820152601160248201527053747265616d206e6f742061637469766560781b6044820152606401610619565b80546001600160a01b03163314806108fe575060018101546001600160a01b031633145b6109555760405162461bcd60e51b815260206004820152602260248201527f4f6e6c792073656e646572206f7220726563697069656e742063616e20706175604482015261736560f01b6064820152608401610619565b60078101805460ff191660011790554260098201819055600582015460009161097d9161294d565b604080514281526020810183905291925084917f5ddcce50521a1fedf263e304fd52169790285432958697a81c35e76737395ed8910160405180910390a260018201546040516001600160a01b03909116908490600080516020612d0c83398151915290610a39906040808252600d908201526c14d51491505357d4105554d151609a1b60608201526080602082018190526015908201527414185e5b595b9d081cdd1c99585b481c185d5cd959605a1b60a082015260c00190565b60405180910390a3505050565b6000610a50611b79565b6001600160a01b038716610a9a5760405162461bcd60e51b8152602060048201526011602482015270125b9d985b1a59081c9958da5c1a595b9d607a1b6044820152606401610619565b336001600160a01b03881603610aea5760405162461bcd60e51b815260206004820152601560248201527421b0b73737ba1039ba3932b0b6903a379039b2b63360591b6044820152606401610619565b60008611610b3a5760405162461bcd60e51b815260206004820152601d60248201527f416d6f756e74206d7573742062652067726561746572207468616e20300000006044820152606401610619565b603c851015610b805760405162461bcd60e51b8152602060048201526012602482015271111d5c985d1a5bdb881d1bdbc81cda1bdc9d60721b6044820152606401610619565b6301e13380851115610bc85760405162461bcd60e51b81526020600482015260116024820152704475726174696f6e20746f6f206c6f6e6760781b6044820152606401610619565b610bd733888888888888611b95565b9050610bf06001600080516020612d2c83398151915255565b9695505050505050565b610c02611b4c565b610c0c6000612113565b565b60026020819052600091825260409091208054600182015492820154600383015460048401546005850154600686015460078701546008880180546001600160a01b039889169a909816989697959694959394929360ff9092169291610c7390612913565b80601f0160208091040260200160405190810160405280929190818152602001828054610c9f90612913565b8015610cec5780601f10610cc157610100808354040283529160200191610cec565b820191906000526020600020905b815481529060010190602001808311610ccf57829003601f168201915b5050506009840154600a850154600b860154600c909601549495919490935060ff90911691508d565b6001600160a01b038216610d5f5760405162461bcd60e51b8152602060048201526011602482015270125b9d985b1a59081c9958da5c1a595b9d607a1b6044820152606401610619565b3360008181526005602090815260408083206001600160a01b03871680855290835292819020805460ff191686151590811790915590519081529192917f4373149eb47e46bf5e8936cd4fe079abe1adc4de44a8ffa04499e3efc8bd6836910160405180910390a35050565b610dd3611b79565b600081815260026020526040812090600782015460ff166003811115610dfb57610dfb6125ac565b1480610e1f57506001600782015460ff166003811115610e1d57610e1d6125ac565b145b610e6b5760405162461bcd60e51b815260206004820152601760248201527f53747265616d206e6f7420776974686472617761626c650000000000000000006044820152606401610619565b60018101546001600160a01b03163314610ec75760405162461bcd60e51b815260206004820152601b60248201527f4f6e6c7920726563697069656e742063616e20776974686472617700000000006044820152606401610619565b6000610ed28361193b565b905060008111610f195760405162461bcd60e51b81526020600482015260126024820152714e6f2066756e647320617661696c61626c6560701b6044820152606401610619565b80826003016000828254610f2d9190612900565b9091555050600a8201546005830154600091610f4891612900565b90508042101580610f6157508260020154836003015410155b15610f6f57610f6f84612163565b600180549084015460405163a9059cbb60e01b81526001600160a01b0391821660048201526024810185905291169063a9059cbb906044016020604051808303816000875af1158015610fc6573d6000803e3d6000fd5b505050506040513d601f19601f82011682018060405250810190610fea9190612a63565b61102a5760405162461bcd60e51b815260206004820152601160248201527015da5d1a191c985dd85b0819985a5b1959607a1b6044820152606401610619565b60018301546040518381526001600160a01b039091169085907f76c3b0b8c255c4c2c7372a000da81ba4dc24fe01e03ed15aad8ccd9bd0479262906020015b60405180910390a350505061108b6001600080516020612d2c83398151915255565b50565b60008181526002602052604090206001600782015460ff1660038111156110b7576110b76125ac565b146110f85760405162461bcd60e51b815260206004820152601160248201527014dd1c99585b481b9bdd081c185d5cd959607a1b6044820152606401610619565b80546001600160a01b031633148061111c575060018101546001600160a01b031633145b6111745760405162461bcd60e51b815260206004820152602360248201527f4f6e6c792073656e646572206f7220726563697069656e742063616e20726573604482015262756d6560e81b6064820152608401610619565b6000816009015442611186919061294d565b90508082600a01600082825461119c9190612900565b92505081905550808260050160008282546111b79190612900565b909155505060078201805460ff1916905560006009830155600582015460408051428152602081019290925284917f67378ce188b792c571058050f012103bfbb4b4c5d66b4341ce417d3f222901fd910160405180910390a260018201546040516001600160a01b03909116908490600080516020612d0c83398151915290610a39906040808252600e908201526d14d51491505357d49154d553515160921b60608201526080602082018190526016908201527514185e5b595b9d081cdd1c99585b481c995cdd5b595960521b60a082015260c00190565b6001600160a01b03811660009081526003602090815260408083208054825181850281018501909352808352606094938301828280156112ef57602002820191906000526020600020905b8154815260200190600101908083116112db575b505050506001600160a01b0385166000908152600460209081526040808320805482518185028101850190935280835295965092949093509083018282801561135757602002820191906000526020600020905b815481526020019060010190808311611343575b5050505050905060008151835161136e9190612900565b67ffffffffffffffff81111561138657611386612960565b6040519080825280602002602001820160405280156113af578160200160208202803683370190505b50905060005b8351811015611407578381815181106113d0576113d0612a34565b60200260200101518282815181106113ea576113ea612a34565b6020908102919091010152806113ff81612a4a565b9150506113b5565b5060005b82518110156114695782818151811061142657611426612a34565b60200260200101518282865161143c9190612900565b8151811061144c5761144c612a34565b60209081029190910101528061146181612a4a565b91505061140b565b50949350505050565b6001600160a01b0381166000908152600360209081526040918290208054835181840281018401909452808452606093928301828280156114d257602002820191906000526020600020905b8154815260200190600101908083116114be575b50505050509050919050565b6114e6611b79565b600081815260026020526040812090600782015460ff16600381111561150e5761150e6125ac565b148061153257506001600782015460ff166003811115611530576115306125ac565b145b6115775760405162461bcd60e51b815260206004820152601660248201527553747265616d206e6f742063616e63656c6c61626c6560501b6044820152606401610619565b80546001600160a01b031633146115c95760405162461bcd60e51b815260206004820152601660248201527513db9b1e481cd95b99195c8818d85b8818d85b98d95b60521b6044820152606401610619565b60006115d48361193b565b9050600081836003015484600201546115ed919061294d565b6115f7919061294d565b60078401805460ff1916600290811790915584015460038501559050811561172757600180549084015460405163a9059cbb60e01b81526001600160a01b0391821660048201526024810185905291169063a9059cbb906044016020604051808303816000875af1158015611670573d6000803e3d6000fd5b505050506040513d601f19601f820116820180604052508101906116949190612a63565b6116e05760405162461bcd60e51b815260206004820152601960248201527f526563697069656e74207472616e73666572206661696c6564000000000000006044820152606401610619565b60018301546040518381526001600160a01b039091169085907f76c3b0b8c255c4c2c7372a000da81ba4dc24fe01e03ed15aad8ccd9bd04792629060200160405180910390a35b80156117e157600154835460405163a9059cbb60e01b81526001600160a01b0391821660048201526024810184905291169063a9059cbb906044016020604051808303816000875af1158015611781573d6000803e3d6000fd5b505050506040513d601f19601f820116820180604052508101906117a59190612a63565b6117e15760405162461bcd60e51b815260206004820152600d60248201526c1499599d5b990819985a5b1959609a1b6044820152606401610619565b82546040518281526001600160a01b039091169085907f7b745ab8af0071365935ef379c8adc5f5b684d673f2433a8e6784eb21d1221769060200160405180910390a360018301546040516001600160a01b03909116908590600080516020612d0c833981519152906110699060408082526010908201526f14d51491505357d0d05390d15313115160821b60608201526080602082018190526018908201527f5061796d656e742073747265616d2063616e63656c6c6564000000000000000060a082015260c00190565b6004602052816000526040600020818154811061064357600080fd5b6118d1611b4c565b6001600160a01b0381166119195760405162461bcd60e51b815260206004820152600f60248201526e496e76616c6964206164647265737360881b6044820152606401610619565b600880546001600160a01b0319166001600160a01b0392909216919091179055565b600081815260026020526040812081600782015460ff166003811115611963576119636125ac565b1415801561198a57506001600782015460ff166003811115611987576119876125ac565b14155b156119985750600092915050565b600a810154600582015442916000916119b19190612900565b90506001600784015460ff1660038111156119ce576119ce6125ac565b036119db57826009015491505b808211156119e7578091505b826004015482116119fd57506000949350505050565b600083600a0154846004015484611a14919061294d565b611a1e919061294d565b90506001600785015460ff166003811115611a3b57611a3b6125ac565b03611a665783600a015484600401548560090154611a59919061294d565b611a63919061294d565b90505b6000846006015482611a789190612a80565b90508460020154811115611a8d575060028401545b6003850154611a9c908261294d565b979650505050505050565b611aaf611b4c565b6001600160a01b038116611ad957604051631e4fbdf760e01b815260006004820152602401610619565b61108b81612113565b6001600160a01b0381166000908152600460209081526040918290208054835181840281018401909452808452606093928301828280156114d257602002820191906000526020600020908154815260200190600101908083116114be5750505050509050919050565b6000546001600160a01b03163314610c0c5760405163118cdaa760e01b8152336004820152602401610619565b611b81612514565b6002600080516020612d2c83398151915255565b60008061271060075488611ba99190612a80565b611bb39190612a97565b90506000611bc1828961294d565b6001546040516323b872dd60e01b81526001600160a01b038d81166004830152306024830152604482018c90529293509116906323b872dd906064016020604051808303816000875af1158015611c1c573d6000803e3d6000fd5b505050506040513d601f19601f82011682018060405250810190611c409190612a63565b611c835760405162461bcd60e51b81526020600482015260146024820152731554d115081d1c985b9cd9995c8819985a5b195960621b6044820152606401610619565b8115611d445760015460085460405163a9059cbb60e01b81526001600160a01b0391821660048201526024810185905291169063a9059cbb906044016020604051808303816000875af1158015611cde573d6000803e3d6000fd5b505050506040513d601f19601f82011682018060405250810190611d029190612a63565b611d445760405162461bcd60e51b8152602060048201526013602482015272119959481d1c985b9cd9995c8819985a5b1959606a1b6044820152606401610619565b6006546040516bffffffffffffffffffffffff1960608d811b821660208401528c901b166034820152604881018a9052426068820152608881019190915260a80160408051601f1981840301815291905280516020909101209250426000611dac8983612900565b90506000611dba8a85612a97565b9050604051806101a001604052808e6001600160a01b031681526020018d6001600160a01b031681526020018581526020016000815260200184815260200183815260200182815260200160006003811115611e1857611e186125ac565b81526020018a8a8080601f0160208091040260200160405190810160405280939291908181526020018383808284376000920182905250938552505050602080830182905260408084018390528b151560608086019190915260809485018490528b8452600280845293829020865181546001600160a01b039182166001600160a01b03199182161783559488015160018084018054929093169190961617905591860151938201939093559184015160038084019190915592840151600483015560a0840151600583015560c0840151600683015560e084015160078301805493949193909260ff19909116918490811115611f1757611f176125ac565b02179055506101008201516008820190611f319082612b08565b50610120820151816009015561014082015181600a015561016082015181600b0160006101000a81548160ff02191690831515021790555061018082015181600c0155905050600360008e6001600160a01b03166001600160a01b03168152602001908152602001600020869080600181540180825580915050600190039060005260206000200160009091909190915055600460008d6001600160a01b03166001600160a01b031681526020019081526020016000208690806001815401808255809150506001900390600052602060002001600090919091909150556006600081548092919061202290612a4a565b91905055508b6001600160a01b03168d6001600160a01b0316877f0fc8dbebd85ebb08a277d4ad64e9e4fc0136e0cf45365db33db83327998678ac8787878f8f8f60405161207596959493929190612bc8565b60405180910390a48b6001600160a01b031686600080516020612d0c8339815191526040516120fb906040808252600e908201526d14d51491505357d4d5105495115160921b6060820152608060208201819052601a908201527f4e6577207061796d656e742073747265616d207374617274656400000000000060a082015260c00190565b60405180910390a35050505050979650505050505050565b600080546001600160a01b038381166001600160a01b0319831681178455604051919092169283917f8be0079c531659141344cd1fd0a4f28419497f9722a3daafe3b4186f6b6457e09190a35050565b600081815260026020526040812060078101805460ff19166003179055600b81015490919060ff1680156121c3575081546001600160a01b03908116600090815260056020908152604080832060018701549094168352929052205460ff165b156123f157600082600a0154836004015484600501546121e3919061294d565b6121ed919061294d565b600284015460015485546040516370a0823160e01b81526001600160a01b0391821660048201529394509192600092909116906370a0823190602401602060405180830381865afa158015612246573d6000803e3d6000fd5b505050506040513d601f19601f8201168201806040525081019061226a9190612c16565b6001548654604051636eb1769f60e11b81526001600160a01b03918216600482015230602482015292935060009291169063dd62ed3e90604401602060405180830381865afa1580156122c1573d6000803e3d6000fd5b505050506040513d601f19601f820116820180604052508101906122e59190612c16565b90508282101580156122f75750828110155b156123ec57600186810154604051633141774760e11b81523092636282ee8e92612338926001600160a01b039091169188918a9160088e0191600401612c2f565b6020604051808303816000875af1925050508015612373575060408051601f3d908101601f1916820190925261237091810190612c16565b60015b156123ec57600c870154612388906001612900565b600082815260026020908152604091829020600c81019390935560059092015481518481529283018790529082015288907f5fa9bff493d07a71a238d15e18d63809c44e544fb18bcf4012882fa7382dcf079060600160405180910390a260019550505b505050505b827f1765e846e522adc9b2cc0e21da37979950403709f5a9ee989b7be9da1fbddc7982604051612425911515815260200190565b60405180910390a260018201546001600160a01b031683600080516020612d0c8339815191528361247e576040518060400160405280601081526020016f14d51491505357d0d3d354131155115160821b8152506124a6565b6040518060400160405280600e81526020016d14d51491505357d491539155d15160921b8152505b846124d9576040518060400160405280601081526020016f14dd1c99585b4818dbdb5c1b195d195960821b815250612506565b6040518060400160405280601381526020017214dd1c99585b48185d5d1bcb5c995b995dd959606a1b8152505b604051610a39929190612cdd565b600080516020612d2c83398151915254600203610c0c57604051633ee5aeb560e01b815260040160405180910390fd5b80356001600160a01b038116811461255b57600080fd5b919050565b6000806040838503121561257357600080fd5b61257c83612544565b915061258a60208401612544565b90509250929050565b6000602082840312156125a557600080fd5b5035919050565b634e487b7160e01b600052602160045260246000fd5b600481106125e057634e487b7160e01b600052602160045260246000fd5b9052565b6000815180845260005b8181101561260a576020818501810151868301820152016125ee565b506000602082860101526020601f19601f83011685010191505092915050565b6001600160a01b038d811682528c166020820152604081018b9052606081018a90526080810189905260a0810188905260c08101879052600061267060e08301886125c2565b6101806101008301526126876101808301876125e4565b94151561012083015250610140810192909252610160909101529998505050505050505050565b600080604083850312156126c157600080fd5b6126ca83612544565b946020939093013593505050565b600080604083850312156126eb57600080fd5b6126f483612544565b915060208301356004811061270857600080fd5b809150509250929050565b6020808252825182820181905260009190848201906040850190845b8181101561274b5783518352928401929184019160010161272f565b50909695505050505050565b801515811461108b57600080fd5b60008060008060008060a0878903121561277e57600080fd5b61278787612544565b95506020870135945060408701359350606087013567ffffffffffffffff808211156127b257600080fd5b818901915089601f8301126127c657600080fd5b8135818111156127d557600080fd5b8a60208285010111156127e757600080fd5b602083019550809450505050608087013561280181612757565b809150509295509295509295565b6001600160a01b038e811682528d166020820152604081018c9052606081018b9052608081018a905260a0810189905260c0810188905261285360e08201886125c2565b6101a0610100820152600061286c6101a08301886125e4565b61012083019690965250610140810193909352901515610160830152610180909101529998505050505050505050565b600080604083850312156128af57600080fd5b6128b883612544565b9150602083013561270881612757565b6000602082840312156128da57600080fd5b6128e382612544565b9392505050565b634e487b7160e01b600052601160045260246000fd5b8082018082111561086b5761086b6128ea565b600181811c9082168061292757607f821691505b60208210810361294757634e487b7160e01b600052602260045260246000fd5b50919050565b8181038181111561086b5761086b6128ea565b634e487b7160e01b600052604160045260246000fd5b6000602080838503121561298957600080fd5b825167ffffffffffffffff808211156129a157600080fd5b818501915085601f8301126129b557600080fd5b8151818111156129c7576129c7612960565b8060051b604051601f19603f830116810181811085821117156129ec576129ec612960565b604052918252848201925083810185019188831115612a0a57600080fd5b938501935b82851015612a2857845184529385019392850192612a0f565b98975050505050505050565b634e487b7160e01b600052603260045260246000fd5b600060018201612a5c57612a5c6128ea565b5060010190565b600060208284031215612a7557600080fd5b81516128e381612757565b808202811582820484141761086b5761086b6128ea565b600082612ab457634e487b7160e01b600052601260045260246000fd5b500490565b601f821115612b0357600081815260208120601f850160051c81016020861015612ae05750805b601f850160051c820191505b81811015612aff57828155600101612aec565b5050505b505050565b815167ffffffffffffffff811115612b2257612b22612960565b612b3681612b308454612913565b84612ab9565b602080601f831160018114612b6b5760008415612b535750858301515b600019600386901b1c1916600185901b178555612aff565b600085815260208120601f198616915b82811015612b9a57888601518255948401946001909101908401612b7b565b5085821015612bb85787850151600019600388901b60f8161c191681555b5050505050600190811b01905550565b86815285602082015284604082015260a060608201528260a0820152828460c0830137600081840160c0908101919091529115156080820152601f909201601f191690910101949350505050565b600060208284031215612c2857600080fd5b5051919050565b60018060a01b038616815260006020868184015285604084015260a0606084015260008554612c5d81612913565b8060a087015260c0600180841660008114612c7f5760018114612c9957612cc7565b60ff1985168984015283151560051b890183019550612cc7565b8a6000528660002060005b85811015612cbf5781548b8201860152908301908801612ca4565b8a0184019650505b505050508515156080860152509150610bf09050565b604081526000612cf060408301856125e4565b8281036020840152612d0281856125e4565b9594505050505056fe83f3a153e705e6d663009b92a979f6b771f57e44f0d13068b5ae4f77b8affcc29b779b17422d0df92223018b32b4d1fa46e071723d6817e2486d003becc55f00a2646970667358221220bf177dd2ad7cddf9e004c6a39aaaf98e0beb35c02d558b48bd7adb8c967d03da64736f6c63430008140033",
  "linkReferences": {},
  "deployedLinkReferences": {}
}